:020000040800F2
:100000006004002091050008990500089B05000880
:100010009D0500089F050008A105000800000000DC
:10002000000000000000000000000000A305000820
:10003000A505000800000000A7050008A9050008A4
:10004000AB050008AB050008AB050008AB050008D0
:10005000AB050008AB050008AB050008AB050008C0
:10006000AB050008AB050008AB050008AB050008B0
:10007000AB050008AB050008AB050008AB050008A0
:10008000AB050008AB050008AB050008AB05000890
:10009000AB050008AB050008AB050008AB05000880
:1000A000AB050008AB050008AB050008AB05000870
:1000B000AB050008AB050008E5020008AB05000829
:1000C000AB050008AB050008AB050008AB05000850
:1000D000AB050008AB050008AB050008AB05000840
:1000E000AB050008AB050008AB050008DFF80CD035
:1000F00007F036F900480047890300086004002033
:10010000F0B593B04FF4004001F056F840F21520DE
:10011000012101F025F90120012101F0FFF84248F9
:10012000424D12A91290284600F054FB404811A9F4
:10013000119005F5006000F04DFB0120012101F058
:10014000EDF83C48002605273B4C06A9023080B25A
:10015000079042F24C40069080200896CDE909763F
:100160000B904FF480700C904FF480600D90202025
:100170000E904FF40050CDE90F06204606F000FD2A
:100180002046012106F0C4FD40F2011005F5E055BE
:10019000019601A9ADF808002846CDE903668DF85F
:1001A000147001F007FA254E28460021012205238C
:1001B000B0472846012102220523B04728460421E2
:1001C00003220523B04728460B2104220523B0470C
:1001D00028460A2105220523B0472846012101F0BF
:1001E0005FFA2846012101F085FA284601F0DAFA83
:1001F000284601F0F5FA0028FAD1284601F00CFB58
:10020000284601F027FB0028FAD12846012101F0F9
:100210003DFB20460221012206F0D2FD08484FF4A2
:100220000061016013B0F0BD13000300000801403D
:10023000010003000000002008000240C919000866
:1002400000E100E070B586B01848012101F0AAF87D
:100250001748059005A800F0C5F9174C154804AEDD
:10026000314604F544450490284600F0B3FA0420D2
:1002700031468DF813000820ADF81000284600F034
:10028000A9FA4FF4E1306946009000200190ADF8E2
:100290000C004FF440200290204605F057FD204608
:1002A000012105F075FE06B070BD00BF040002001C
:1002B000260000010400031800440040B0B5084DBA
:1002C000044609E0284606F053F82846402106F087
:1002D00073FA0028F9D0013421780029F2D1B0BD99
:1002E00000440040B0B5084C01210125204605F02E
:1002F000F5FB38B10548012105802046BDE8B04036
:1003000005F068BCB0BD00BF000800400000002040
:1003100081B00021009141F2883148430099814227
:1003200004BF01B07047009901310091F6E780B534
:1003300000F0A4FD4FF4803000F0C0FD00F0EAFDB5
:1003400001281FD1002000F0ABFE002000F0E4FEE9
:100350004FF4806000F0C2FE4FF480304FF4E011A3
:1003600000F04CFE012000F06FFE392000F0E8FDA7
:100370000028FAD0022000F077FE00F089FE08285D
:10038000FBD180BDFEE700BF2DE9F04188B0FFF74B
:1003900059FF2048FFF792FFFFF7B2FE042001212A
:1003A00001F000F805AC204602F042FF41F288302F
:1003B000194D2146ADF818004FF4E150059028463C
:1003C00001F0D2FF28460121012202F0E5FF284674
:1003D000012102F047FF1148049004A800F002F93F
:1003E0000F4E0FF24008002706F10C043088012858
:1003F000FCD17288B388F088318975898DE8230033
:100400002046414606F0BEFF2046FFF757FF3780E3
:10041000ECE700BF4E750008000800401E00000118
:10042000000000200D0A2564203A202564203A208F
:100430002564203A202564203A2025640D0A000016
:10044000EFF3108072B6ABBEFDE7000082B0354816
:10045000354A016841F00101016041681140334AA9
:100460004160016811400160016821F48021016050
:10047000416821F4FE0141604FF41F0181600021B9
:1004800001910091016841F480310160016801F43B
:1004900000310091019901310191009919B9019937
:1004A000B1F5A06FF2D1016811F4003F0CBF00213B
:1004B000012100910099012932D14FF48051425815
:1004C00042F010024250425822F003024250425879
:1004D00042F0020242504168416041684160416817
:1004E00041F480614160416821F47C1141604168C0
:1004F00041F4E8114160016841F0807101600168D8
:1005000011F0007FFBD0416821F003014160416898
:1005100041F002014160416801F00C010829FAD163
:1005200002B07047001002400000FFF8FFFFF6FE27
:100530001248016801F00C021149082A13D102681F
:10054000104BC2F3834202F1020C026812F4803FA6
:1005500002D10CFB03F106E0026812F4003F08BF71
:100560000B4603FB0CF1084A084B11600068C0F30E
:100570000310185C21FA00F010607047041002406C
:1005800000127A0000093D005C0000202E75000872
:100590000648804706480047FEE7FEE7FEE7FEE71D
:1005A000FEE7FEE7FEE7FEE7FEE7FEE74D04000894
:1005B000ED00000810B50446A4F540704FEA302065
:1005C000052803D304486321FFF73AFF0348044991
:1005D0002043086010BD00BF5E7500080000FA05EA
:1005E0000CED00E010B50446E078022803D31D4866
:1005F0007521FFF725FF6078102803D3194876216D
:10060000FFF71EFFA078102803D316487721FFF7C5
:1006100017FFE1781448C1B11449072209686378CB
:1006200094F800C022EA11210F2222FA01FEA278DA
:10063000C1F1040103FA01F102EA0E02114300EBD9
:100640000C02090182F8001300E0803021780123B8
:1006500001F01F02C1F3421103FA02F240F8212017
:1006600010BD00BF5E75000800E100E00CED00E089
:10067000B0B504460D46B4F1006F06D0B4F1005F8A
:1006800003D008489F21FFF7DBFE0748854203D3CC
:100690000448A021FFF7D4FE044805492840204320
:1006A0000860B0BD5E750008FFFF0F0080FFFF1FF0
:1006B00008ED00E070B504460D46102C04D801206A
:1006C0000B49A040084203D10A48B221FFF7B8FE07
:1006D000094E45B1012D03D00648B321FFF7B0FE06
:1006E0003068204301E03068A043306070BD00BF37
:1006F000140001005E75000810ED00E010B504461E
:10070000601D05D0042C03D00648CA21FFF798FECF
:100710000548042C016821F0040208BF41F00402DE
:10072000026010BD5E75000810E000E080B5214950
:1007300008444FEAB02006280BD8DFE800F0041088
:10074000161C22282E000420012100F04DFE04205A
:100750002AE019486F21BDE88040FFF771BE0820EC
:10076000012100F041FE08201EE01020012100F0D0
:100770003BFE102018E02020012100F035FE202053
:1007800012E04020012100F02FFE40200CE08020EC
:10079000012100F029FE802006E04FF48070012145
:1007A00000F022FE4FF480700021BDE8804000F090
:1007B0001BBE00BF00F8FEBF7175000880B50120A8
:1007C000012100F011FE01200021BDE8804000F071
:1007D0000BBE00BF2DE9F04780464748894640449C
:1007E0004FEAB020072803D34448B221FFF728FE80
:1007F00099F80300810841EA8010C0B2122875D828
:10080000012101FA00F03E4908426FD0B9F800001A
:1008100018B93A48B421FFF713FE99F8030000F025
:100820000F0A10F0100F0DD099F80200411EC9B246
:10083000032905D33148BB21FFF702FE99F80200D6
:100840004AEA000AB9F8000010F0FF0F22D0D8F8E9
:100850000010002201234FF00F0C002416E003FAD1
:1008600004F7074210D00CFA02F60AFA02F5B14377
:10087000294399F80350482D04D0282D08BFC8F803
:10088000147001E0C8F8107004320134082CE6D16D
:10089000C8F80010B0F5807F38BFBDE8F087D8F801
:1008A0000410002201234FF00F0C002418E004F183
:1008B000080703FA07F7074210D00CFA02F50AFA04
:1008C00002F6A94399F803503143482D04D0282D4E
:1008D00008BFC8F8147001E0C8F810700432013481
:1008E000202AE4D1C8F80410BDE8F0870348B321FA
:1008F000FFF7A6FD8AE700BF00F8FEBF717500088C
:10090000F304040001490160704700BFFFFF0204C7
:10091000B0B505461D480C4628444FEAB0200728CC
:1009200004D31B484FF48F71FFF78AFD601E1F2808
:1009300021D9402C25D0802C23D0B4F5807F20D025
:10094000B4F5007F1DD0B4F5806F1AD0B4F5006FF8
:1009500017D0B4F5805F14D0B4F5005F11D0B4F5B2
:10096000804F0ED0B4F5004F0BD0094840F21F1154
:10097000FFF766FD05E0012101FA00F00549084294
:10098000D7D0A868204018BF0120B0BD00F8FEBF36
:10099000717500088B80008010B50446064820441D
:1009A0004FEAB020072804D304484FF49A71FFF7A8
:1009B00047FDA06880B210BD00F8FEBF7175000849
:1009C000B0B505461D480C4628444FEAB02007281C
:1009D00004D31B484FF4A271FFF732FD601E1F289D
:1009E00021D9402C25D0802C23D0B4F5807F20D075
:1009F000B4F5007F1DD0B4F5806F1AD0B4F5006F48
:100A000017D0B4F5805F14D0B4F5005F11D0B4F501
:100A1000804F0ED0B4F5004F0BD0094840F245117D
:100A2000FFF70EFD05E0012101FA00F0054908423B
:100A3000D7D0E868204018BF0120B0BD00F8FEBF45
:100A4000717500088B80008010B50446064820446C
:100A50004FEAB020072804D304484FF4AD71FFF7E4
:100A6000EFFCE06880B210BD00F8FEBF71750008B1
:100A7000B0B5054609480C4628444FEAB02007287F
:100A800004D3074840F26911FFF7DAFC24B904489F
:100A90004FF4B571FFF7D4FC2C61B0BD00F8FEBF78
:100AA00071750008B0B5054609480C4628444FEA60
:100AB000B020072804D3074840F27911FFF7C0FCA3
:100AC00024B904484FF4BD71FFF7BAFC6C61B0BDA6
:100AD00000F8FEBF7175000870B50546234816463C
:100AE0000C4628444FEAB020072804D3204840F29F
:100AF0008D11FFF7A5FC601E1F2821D9402C25D0A1
:100B0000802C23D0B4F5807F20D0B4F5007F1DD099
:100B1000B4F5806F1AD0B4F5006F17D0B4F5805FCC
:100B200014D0B4F5005F11D0B4F5804F0ED0B4F5F9
:100B3000004F0BD00E484FF4C771FFF781FC05E062
:100B4000012101FA00F00B490842D7D0022E04D34C
:100B5000074840F28F11FFF773FC05F11000002EDB
:100B600008BF05F11400046070BD00BF00F8FEBFAF
:100B7000717500088B800080B0B5054606480C46AC
:100B800028444FEAB020072804D304484FF4D27118
:100B9000FFF756FCEC60B0BD00F8FEBF71750008B1
:100BA000B0B504460C480D4620444FEAB020072853
:100BB00004D30A4840F2B511FFF742FC25B90748B3
:100BC0004FF4DB71FFF73CFC45F48030A061A56178
:100BD000A061A069A069B0BD00F8FEBF71750008F2
:100BE000B0B505460C46052D04D30B484FF4E9710A
:100BF000FFF726FC102C04D3074840F2D311FFF76F
:100C00001FFC06494FF6807344EA05100A681A4033
:100C100010430860B0BD00BF7175000800000140BE
:100C200010B50446022C04D303484FF4F371FFF7C8
:100C300007FC0248046010BD717500081C002042CA
:100C4000F8B5044655480F4620441F285FD955483B
:100C500020441F2862D9082C67D9534884426AD09F
:100C60005248844267D05248844264D051488442FA
:100C700061D0514884425ED0504884425BD0504895
:100C8000844258D04F48844255D0B4F5805F52D04A
:100C9000B4F5004F4FD04C4884424CD04B4884426E
:100CA00049D04B48844246D04A48844243D04A48BF
:100CB000844240D0494884423DD0494884423AD099
:100CC0004848844237D04848844234D0B4F5EA1FBB
:100CD00031D0B4F5EB1F2ED0444884422BD0444889
:100CE000844228D04348844225D0B4F5011F22D045
:100CF000414884421FD0414884421CD0404884422D
:100D000019D0404840F22A21FFF79AFB13E0012155
:100D100001FA00F0224908420DD198E7012101FAB9
:100D200000F01F49084206D195E70120A04010F4C9
:100D30008B7F3FF492AF022F04D3324840F22B2135
:100D4000FFF77EFB304B002C04F44016A1B218468E
:100D5000B8BF1830B6F5401F0268C4F3034506D18A
:100D60001E6822F0706226F070661E600DE0E302DD
:100D700006D447F6F07303EA544301FA03F301E0A3
:100D80000323AB409A4342F070622FB147F6F073F1
:100D900003EA544399400A430260F8BDFFFFFF7F16
:100DA0008B800080FFFFDFFF40000080800000801C
:100DB0000001008000020080000400800008008024
:100DC000001000800020008010001400300014008B
:100DD00040001600C00016000001180000021800B4
:100DE0000003180000081A00000C1A004000200040
:100DF000001120000020200000013000000230001F
:100E0000000430007175000804000140B0B50446CC
:100E10000D46072C04D30F4840F26521FFF710FB65
:100E2000102D04D30B4840F26621FFF709FB0A4B53
:100E30000C2005F0FC020F2100EA8500D558814006
:100E400004FA00F025EA0101D150D1580843D050EE
:100E5000B0BD00BF717500080800014010B5044620
:100E6000022C04D303484FF41E71FFF7E9FA02483D
:100E7000046010BD71750008DC0020420C480D4A6A
:100E8000016841F001010160416811400A4A416076
:100E9000016811400160016821F48021016041680E
:100EA00021F4FE0141604FF41F018160704700BFD3
:100EB000001002400000FFF8FFFFF6FE10B50446E8
:100EC00054B1B4F5803F07D0B4F5802F04D00F485B
:100ED00040F21111FFF7B4FA0D48B4F5802F016804
:100EE00021F480310160016821F48021016006D085
:100EF000B4F5803F18BF10BD4FF4803101E04FF4CE
:100F0000A02102681143016010BD00BF8E7500086A
:100F10000010024081B0002000900848026800994B
:100F2000013112F4003F0091009902D1B1F5A06F98
:100F3000F4D10068C0F3404001B070470010024097
:100F4000B0B50446174DA4F161001E2817D8012141
:100F500001FA00F01449084211D0600905F124019A
:100F6000022808BF05F120010D4604F01F000121F1
:100F700001FA00F02968084018BF0120B0BD212CFB
:100F8000F3D0312CF1D0392CEFD0412CE5D00748EB
:100F900040F23451FFF754FA0120B0EB541FDCD17A
:100FA000E3E700BF001002400100007E8E750008DC
:100FB00010B50446202C04D306484FF4A971FFF75E
:100FC0003FFA0548016821F0F80141EAC4010160D7
:100FD00010BD00BF8E7500080010024010B5044619
:100FE000022C04D3034840F26511FFF729FA0248A6
:100FF000046010BD8E75000800004242B0B5054681
:101000000C4655B1B5F5803F07D0B5F5403F04D04B
:101010000B4840F27F11FFF713FA4FEAB4400F2854
:1010200004D307484FF4C071FFF70AFA054944EAB0
:1010300005000A6822F47C1210430860B0BD00BFAE
:101040008E7500080410024010B50446022C04D32B
:1010500003484FF4CA71FFF7F3F90248046010BD6A
:101060008E7500086000424210B50446032C04D37C
:1010700005484FF40E71FFF7E3F90448016821F0C9
:1010800003012143016010BD8E7500080410024069
:101090000248006800F00C00704700BF04100240D6
:1010A00010B504464FEA34100F280DD8012101FA7B
:1010B00000F04FF60171084206D00748016821F0A0
:1010C000F0012143016010BD02484FF41971FFF790
:1010D000B7F9F2E78E7500080410024010B5044617
:1010E0004FEA342007280CD8012101FA00F010F053
:1010F000F10F06D00748016821F4E0612143016047
:1011000010BD034840F27E21FFF79AF9F2E700BFD5
:101110008E7500080410024010B504464FEA3420D2
:1011200007280DD8012101FA00F010F0F10F07D0C7
:101130000748016821F4605141EAC401016010BD13
:1011400002484FF42671FFF77BF9F1E78E7500082E
:101150000410024070B504460D4614B114F0E000CE
:1011600004D00B4840F2BF21FFF76AF9094E55B190
:10117000012D04D006484FF43071FFF761F9307843
:101180002043C0B201E03078A043307070BD00BF92
:101190008E7500080910024010B50446022C04D3D5
:1011A000034840F2DB21FFF74BF90248046010BD11
:1011B0008E750008D800424210B504464FEAB4309C
:1011C000042804D3054840F20231FFF739F90448F6
:1011D000016821F440412143016010BD8E75000873
:1011E00004100240B0B50C4C002580B1042805D095
:1011F000012807D100202070012009E00020207084
:10120000052005E005484FF45071FFF719F900205B
:1012100025702070B0BD00BF201002408E75000800
:1012200010B50446022C04D3034840F26131FFF7A5
:1012300007F90248046010BD8E7500088004424220
:1012400010B50446B4F5807F18BFB4F5007F04D113
:10125000074801682143016010BDB4F5407FF7D015
:10126000024840F27231FFF7EBF8F1E78E750008A3
:101270002010024010B50446022C04D303484FF45A
:101280006071FFF7DDF80248046010BD8E7500083C
:101290003C04424210B51C490A6802F00C031B4A88
:1012A000082B13D10B681A4CC3F3834303F1020CD0
:1012B0000B6813F4803F02D10CFB04F206E00B68CC
:1012C00013F4003F08BF144604FB0CF20260114CFB
:1012D0000B68C3F30313E35CDA4042600B68C3F3AB
:1012E0000223E35C22FA03F383600B68C3F3C22397
:1012F000E35CDA40084BC2600968C1F38131595C94
:10130000B2FBF1F1016110BD0410024000127A003D
:1013100000093D003E7500082A75000870B50446B6
:101320000D4624B140F2575024EA000020B10A488B
:1013300040F22B41FFF784F8084E4DB1012D04D047
:10134000054840F22C41FFF77BF83068204301E06C
:101350003068A043306070BD8E75000814100240E4
:1013600070B504460D4614B10B48204004D00B481C
:1013700040F24A41FFF764F8094E4DB1012D04D007
:10138000064840F24B41FFF75BF83068204301E02C
:101390003068A043306070BD0200C0FF8E75000849
:1013A0001810024070B504460D4614B10B48204099
:1013B00004D00B4840F26941FFF742F8094E4DB1A5
:1013C000012D04D0064840F26A41FFF739F8306831
:1013D000204301E03068A043306070BD00360181D9
:1013E0008E7500081C10024070B504460D4614B1FD
:1013F0000B48204004D00B4840F2A441FFF720F8EE
:10140000094E4DB1012D04D0064840F2A541FFF729
:1014100017F83068204301E03068A043306070BDA9
:101420000200C0FF8E7500080C10024070B5044623
:101430000D4614B10B48204004D00B4840F2C34184
:10144000FEF7FEFF094E4DB1012D04D0064840F2D3
:10145000C441FEF7F5FF3068204301E03068A04347
:10146000306070BD003601818E750008101002409A
:1014700010B50446022C04D303484FF49B61FEF7D9
:10148000DFFF0248046010BD8E7500084004424230
:1014900010B50446022C04D3034840F2E541FEF7A0
:1014A000CFFF0248046010BD8E7500084C00424218
:1014B00010B50446072C07D80120A04010F0F10F0A
:1014C00002D00548047010BD024840F20551FEF7F5
:1014D000B7FFF6E78E750008071002400248016862
:1014E00041F08071016070472410024010B504463D
:1014F000102C0AD801200949A040084205D009480B
:101500000068204018BF012010BD802CF7D004488F
:1015100040F27E51FEF794FFF1E700BF1601010093
:101520008E7500080810024010B5044614B114F07E
:10153000600004D0034840F2AB51FEF781FF02483F
:10154000047010BD8E7500080A10024080B5154960
:1015500088420DD01449884212D0144988421BD1C8
:101560004FF400400121FFF73FFF4FF400400EE031
:101570004FF400700121FFF737FF4FF4007006E0D1
:101580004FF480600121FFF72FFF4FF480600021AE
:10159000BDE88040FFF728BF0548B621BDE8804080
:1015A000FEF74EBF0024014000280140003C0140EE
:1015B000AA750008B0B504462F480D46844209D0EC
:1015C0002E48844206D02E48844203D02D48DF2185
:1015D000FEF736FF28684FEA30400A2803D329482F
:1015E000E021FEF72DFF2879022803D32548E121C9
:1015F000FEF726FF6879022803D32248E221FEF78E
:101600001FFFA8684FEA7040082803D31D48E32154
:10161000FEF716FFE86840F40060B0F5006F03D0F5
:101620001848E421FEF70CFF287C0138C1B21029CC
:1016300005D31448E521FEF703FF287C01386168D3
:10164000114AC0B211402A6811432A7941EA0221A5
:101650000E4A6160A1681140D5E902231943114384
:101660006A7941EA4201A160E16A21F4700141EA2C
:101670000050E062B0BD00BF0024014000280140DE
:10168000003C0140AA750008FFFEF0FFFDF7F1FFE6
:10169000002101608180C0E90211012101747047BD
:1016A000B0B504460F480D4684420AD00E48844225
:1016B00007D00E48844204D00D484FF49771FEF7CE
:1016C000BFFE022D04D30A4840F22F11FEF7B8FEE8
:1016D000A068002D40F0010108BF20F00101A160C9
:1016E000B0BD00BF0024014000280140003C014083
:1016F000AA750008B0B504460D480D46844207D0CF
:101700000C48844204D00C4840F24711FEF798FE82
:10171000022D04D308484FF4A471FEF791FEA0688F
:10172000002D40F4807108BF20F48071A160B0BD2D
:1017300000240140003C0140AA75000870B5044631
:10174000144815460E4684420AD01348844207D0F6
:101750001248844204D0124840F26511FEF770FE30
:10176000022D04D30E484FF4B371FEF769FE16B193
:1017700026F4FC6020B10A4840F26711FEF760FED3
:101780006168F0B2002D0CBF21EA000008436060E0
:1017900070BD00BF0024014000280140003C014012
:1017A000AA75000810B50446094884420AD00948C1
:1017B000844207D00848844204D008484FF4BF71DF
:1017C000FEF73EFEA06840F00800A06010BD00BF1C
:1017D0000024014000280140003C0140AA75000897
:1017E00010B50446084884420AD00848844207D00D
:1017F0000748844204D007484FF4C671FEF720FE24
:10180000A068C0F3C00010BD0024014000280140C2
:10181000003C0140AA75000810B5044609488442FE
:101820000AD00948844207D00848844204D00848B6
:101830004FF4D271FEF704FEA06840F00400A060EF
:1018400010BD00BF0024014000280140003C0140C1
:10185000AA75000810B50446084884420AD0084812
:10186000844207D00748844204D007484FF4D97116
:10187000FEF7E6FDA068C0F3800010BD0024014023
:1018800000280140003C0140AA750008B0B504469C
:101890000F480D4684420AD00E48844207D00E48B5
:1018A000844204D00D484FF4E671FEF7C9FD022DC5
:1018B00004D30A4840F2CD11FEF7C2FDA068002D06
:1018C00040F4A00108BF20F4A001A160B0BD00BF9A
:1018D0000024014000280140003C0140AA75000896
:1018E00010B50446084884420AD00848844207D00C
:1018F0000748844204D0074840F2E511FEF7A0FDF6
:10190000A068C0F3805010BD0024014000280140B1
:10191000003C0140AA750008B0B5044610480D46C9
:1019200084420AD00F48844207D00F48844204D032
:101930000E4840F20221FEF783FD681EC0B208285F
:1019400004D30A4840F20321FEF77AFD0848616893
:1019500000EB453021F4604108436060B0BD00BF3A
:101960000024014000280140003C0140AA75000805
:1019700000E0FFFFB0B504460F480D4684420AD090
:101980000E48844207D00E48844204D00D4840F2ED
:101990001B21FEF755FD022D04D30A484FF40771B1
:1019A000FEF74EFD6068002D40F4006108BF20F492
:1019B00000616160B0BD00BF00240140002801400B
:1019C000003C0140AA750008F8B506462E481F469F
:1019D00015460C4686420AD02C48864207D02C4831
:1019E000864204D02B4840F25221FEF729FD122CEA
:1019F00004D3284840F25321FEF722FD681EC0B2EE
:101A0000102804D323484FF41571FEF719FD082F51
:101A100004D3204840F25521FEF712FD04EB4400A8
:101A2000092C06F110024FF0070188BF1E38092C5F
:101A300088BF06F10C02814007FA00F0062D1368FA
:101A400023EA010140EA0100106004D806F13400E5
:101A50006FF0040109E00C2D87BF06F12C006FF038
:101A6000400106F130006FF0220105EB85021F23D3
:101A7000114404FA01F203FA01F1036823EA0101B7
:101A800011430160F8BD00BF00240140002801405F
:101A9000003C0140AA750008B0B504460F480D4649
:101AA00084420AD00E48844207D00E48844204D0B3
:101AB0000D4840F2B121FEF7C3FC022D04D30A48C1
:101AC00040F2B221FEF7BCFCA068002D40F480116A
:101AD00008BF20F48011A160B0BD00BF0024014008
:101AE00000280140003C0140AA75000810B50446DA
:101AF000084884420AD00848844207D007488442F4
:101B000004D0074840F2C721FEF79AFCE06C80B28F
:101B100010BD00BF0024014000280140003C0140EE
:101B2000AA75000801480068704700BF4C240140B6
:101B3000B0B504460F480D4684420AD00E48844290
:101B400007D00E48844204D00D4840F2E121FEF750
:101B500077FC022D04D30A4840F2E221FEF770FC24
:101B60006068002D40F4806108BF20F480616160EE
:101B7000B0BD00BF0024014000280140003C0140EE
:101B8000AA750008B0B504460F480D4684420AD035
:101B90000E48844207D00E48844204D00D4840F2DB
:101BA000FB21FEF74DFC022D04D30A484FF43F7190
:101BB000FEF746FC6068002D40F4805108BF20F419
:101BC00080516160B0BD00BF002401400028014089
:101BD000003C0140AA750008B0B504460E480D4609
:101BE00084420AD00D48844207D00D48844204D074
:101BF0000C4840F22331FEF723FC4FEA3530082829
:101C000004D308484FF44971FEF71AFCA06820F489
:101C1000E0402843A060B0BD0024014000280140FE
:101C2000003C0140AA750008B0B504460F480D46B7
:101C300084420AD00E48844207D00E48844204D021
:101C40000D4840F23B31FEF7FBFB022D04D30A485E
:101C50004FF44F71FEF7F4FBA068002D40F40041F3
:101C600008BF20F40041A160B0BD00BF00240140C6
:101C700000280140003C0140AA750008B0B50446A8
:101C80000F480D4684420AD00E48844207D00E48C1
:101C9000844204D00D484FF45571FEF7D1FB022D5C
:101CA00004D30A4840F25531FEF7CAFBA068002D64
:101CB00040F4021108BF20F40211A160B0BD00BFC2
:101CC0000024014000280140003C0140AA750008A2
:101CD00010B50446084884420AD00848844207D018
:101CE0000748844204D0074840F26D31FEF7A8FB54
:101CF000A068C0F3405010BD0024014000280140FE
:101D0000003C0140AA750008F8B5044627481F4664
:101D100016460D4684420AD02548844207D02548FD
:101D2000844204D0244840F2A631FEF789FB122DEC
:101D300004D3214840F2A731FEF782FB701EC0B2E7
:101D4000042804D31C484FF46A71FEF779FB082F6E
:101D500004D3194840F2A931FEF772FB05EB4500A8
:101D6000092D04F110024FF0070188BF1E38092D1C
:101D700088BF04F10C02814007FA00F0136823EADF
:101D800001011F2308431060B01CA16BC1F3015275
:101D9000801AC0B200EB800005FA00F203FA00F0EE
:101DA00021EA00001043A063F8BD00BF00240140F9
:101DB00000280140003C0140AA750008B0B5044667
:101DC00010480D4684420AD00F48844207D00F487D
:101DD000844204D00E4840F2E631FEF731FB681E23
:101DE000C0B2042804D30A4840F2E731FEF728FBCA
:101DF0000848A16B00EB055021F440110843A06393
:101E0000B0BD00BF0024014000280140003C01405B
:101E1000AA7500080000F0FF7CB5064600201446B5
:101E20000D460190154886420AD01548864207D0D3
:101E30001448864204D0144840F20641FEF700FBE5
:101E4000A5F11400C0F3850141EA8010C0B2042856
:101E500004D30D4840F20741FEF7F2FAB4F5805F73
:101E600004D309484FF48161FEF7EAFA019601981C
:101E700028440190019804607CBD00BF002401400B
:101E800000280140003C0140AA750008BCB5054689
:101E900000200C460190134885420AD01248854222
:101EA00007D01248854204D0114840F22141FEF784
:101EB000C7FAA4F11400C0F3850141EA8010C0B252
:101EC000042804D30A4840F22241FEF7B9FA0195EA
:101ED00001982044283001900198006880B202B037
:101EE000B0BD00BF0024014000280140003C01407B
:101EF000AA750008B0B5044616480D4684420AD0BB
:101F00001548844207D01548844204D0144840F252
:101F10003E41FEF795FA75B1B5F5800F0BD011482B
:101F2000854208D0B5F5000F05D00F48854218BF8F
:101F3000B5F5400F05D160680D4908402843606041
:101F4000B0BD0A488542F6D0054840F23F41FEF751
:101F500077FAF0E70024014000280140003C0140EE
:101F6000AA75000800024000000280000002C000C4
:101F7000FFFD3FFF70B50646114814460D468642E8
:101F80000AD01048864207D00F48864204D00F4836
:101F900040F25741FEF754FAB5F5805F04D30B4881
:101FA0004FF48B61FEF74CFAB4F5805F04D3074819
:101FB00040F25941FEF744FA7562B46270BD00BF49
:101FC0000024014000280140003C0140AA7500089F
:101FD000B0B504460D480D4684420AD00C488442F0
:101FE00007D00C48844204D00B4840F27D41FEF7F4
:101FF00027FA122D04D3084840F27E41FEF720FA5A
:10200000606820F01F0028436060B0BD00240140DC
:1020100000280140003C0140AA75000810B50446A4
:10202000022C04D3074840F29241FEF709FA064811
:10203000002C016841F4000208BF21F40002026094
:1020400010BD00BFAA75000808240140B0B50546C0
:1020500010480C4685420AD00F48854207D00F48E9
:10206000854204D00E4840F2AF41FEF7E9F9102C4A
:1020700009D801200B49A040084204D0286820401C
:1020800018BF0120B0BD06484FF49661FEF7D8F99D
:10209000F4E700BF0024014000280140003C01405B
:1020A000AA75000816010100B0B504460D480D469A
:1020B00084420AD00C48844207D00C48844204D0A1
:1020C0000B4840F2CF41FEF7BBF915B115F0E00027
:1020D00004D007484FF49A61FEF7B2F9E843206054
:1020E000B0BD00BF0024014000280140003C014079
:1020F000AA750008B0B5054615480C4685420AD0B9
:102100001448854207D01448854204D0134840F251
:10211000E441FEF795F9B4F5A07F18BFB4F5087F48
:102120000DD168682968204001EA14210029C0B255
:1021300018BF0121002818BF01200840B0BDB4F528
:10214000906FEED0054840F2E541FEF779F9E8E7F7
:102150000024014000280140003C0140AA7500080D
:10216000B0B504460D480D4684420AD00C4884425E
:1021700007D00C48844204D00B4840F20751FEF7C8
:102180005FF915B125F4FC6020B107484FF4A16157
:10219000FEF756F96FEA15202060B0BD002401401B
:1021A00000280140003C0140AA75000880B5B0F14C
:1021B000804F38D05B4988423BD05B4988423ED053
:1021C0005A49884241D05A49884244D059498842A4
:1021D00047D0594988424AD0584988424DD0584939
:1021E000884250D05749884259D0574988425ED0DA
:1021F0005649884263D05649884268D0554988423A
:102200006DD05549884272D05449884277D054499C
:10221000884240F080804FF400100121FFF7E4F87D
:102220004FF4001072E001200121FFF7FFF80120B8
:1022300030E002200121FFF7F9F802202AE0042013
:102240000121FFF7F3F8042024E008200121FFF723
:10225000EDF808201EE010200121FFF7E7F810201C
:1022600018E020200121FFF7E1F8202012E04020B3
:102270000121FFF7DBF840200CE080200121FFF76F
:10228000D5F8802006E04FF480700121FFF7CEF8EA
:102290004FF480700021BDE88040FFF7C7B84FF4CD
:1022A00000600121FFF7A0F84FF400602EE04FF42A
:1022B00000500121FFF798F84FF4005026E04FF44A
:1022C00080300121FFF790F84FF480301EE04FF48A
:1022D00000300121FFF788F84FF4003016E04FF48A
:1022E00080200121FFF780F84FF480200EE04FF4AA
:1022F00000200121FFF778F84FF4002006E04FF4AA
:1023000080100121FFF770F84FF480100021BDE824
:102310008040FFF769B813487D21BDE88040FEF793
:102320008FB800BF0004004000080040000C0040CF
:10233000001000400014004000180040001C004045
:1023400000200040002C01400034014000400140CA
:102350000044014000480140004C01400050014051
:1023600000540140C6750008B0B504460D46B4F1EE
:10237000804F33D04348844230D0434884422DD0EC
:10238000424884422AD04248844227D0414884426D
:1023900024D04148844221D0404884421ED0404845
:1023A00084421BD03F48844218D03F48844215D015
:1023B0003E48844212D03E4884420FD03D48844279
:1023C0000CD03D48844209D03C48844206D03C4869
:1023D000844203D03B48E721FEF732F868880109C0
:1023E00041EA003080B2062847D8012101FA00F006
:1023F00010F0570F41D0E88848B1B0F5807F06D083
:10240000B0F5007F03D02F48E921FEF719F82088A6
:10241000B4F1804F0ED01B498C420BD01A498C422C
:1024200008D01A498C4205D01F498C4202D01D4960
:102430008C4203D1698820F070000843154A44F4A7
:102440008061914203D0E98820F4407008432080E5
:10245000A888A085288820851B4820444FEAB02002
:10246000072807D8012101FA00F010F0E50F1CBF82
:10247000287A20860120A082B0BD1248E821FDF70D
:10248000DFFFB8E70004004000080040000C0040F7
:10249000001000400014004000180040001C0040E4
:1024A00000200040002C0140003401400040014069
:1024B0000044014000480140004C014000500140F0
:1024C00000540140C675000800D4FEBF2DE9F0415C
:1024D00004460D46B4F1804F2ED05A4884422BD08A
:1024E0005948844228D05948844225D058488442CB
:1024F00022D0584884421FD0574884421CD05748A5
:10250000844219D05648844216D05648844213D08B
:102510005548844210D0554884420DD054488442D6
:102520000AD05448844207D05348844204D05348C8
:102530004FF48E71FDF784FF2888010941EA0030CD
:1025400080B2072878D8012101FA00F010F0CF0FEF
:1025500072D06888022804D348484FF48F71FDF781
:102560006FFF288940F00201022905D0434840F25C
:102570001F11FDF765FF2889218C21F001012184BD
:10258000218CA68821F002010843218B6A8840EA49
:102590000207288821F0730141EA000838482044E6
:1025A0004FEAB02007283FD8012101FA00F010F0CF
:1025B000E50F39D0A88840F00400042804D02F4843
:1025C0004FF49E71FDF73CFF688940F00800082831
:1025D00004D02A4840F23D11FDF732FFE88940F46B
:1025E0000070B0F5007F04D024484FF49F71FDF7D0
:1025F00027FFA88940F48071B1F5807F05D01F487E
:1026000040F23F11FDF71CFFA88926F440710843F2
:10261000E98940EA0106698927F00C0021F00401EC
:102620000843A98840EA0107A680A4F81880E88832
:10263000A0862784BDE8F081104840F21D11FDF707
:10264000FFFE86E70004004000080040000C004048
:1026500000180040001C004000200040002C0140F9
:102660000034014000400140004401400048014066
:10267000004C01400050014000540140C675000864
:1026800000D4FEBF2DE9F04104460D46B4F1804F61
:102690001CD05148844219D05048844216D050482A
:1026A000844213D04F48844210D04F4884420DD00A
:1026B0004E4884420AD04E48844207D04D48844256
:1026C00004D04D4840F26F11FDF7BAFE2888010989
:1026D00041EA003080B2072877D8012101FA00F0E2
:1026E00010F0CF0F71D06888022804D3424840F21E
:1026F0007111FDF7A5FE288940F00201022905D0DD
:102700003D484FF4B971FDF79BFE2889218C21F0DB
:1027100010012184218CA68821F0200141EA0010BB
:10272000218B6A8840EA0217288821F4E64141EAB1
:1027300000282E48844202D02B4884423DD1A888EC
:1027400040F00400042804D02B4840F28F11FDF71C
:1027500077FE688940F00800082804D026484FF426
:10276000C871FDF76DFEE88940F40070B0F5007F98
:1027700004D0214840F29111FDF762FEA88940F48F
:102780008071B1F5807F05D01B484FF4C971FDF70A
:1027900057FEA8896A894FF63F714FF6B0733940EA
:1027A00003EA02121143AA8841EA021726F44061A3
:1027B00041EA8000E98940EA8106A680A4F81880F1
:1027C000E88820872784BDE8F0810B484FF4B87172
:1027D000FDF736FE87E700BF000400400008004018
:1027E000000C004000180040002C01400034014063
:1027F00000400140004C0140C67500082DE9F04141
:1028000004460D46B4F1804F13D04C48844210D09A
:102810004B4884420DD04B4884420AD04A488442F7
:1028200007D04A48844204D0494840F2C111FDF71C
:1028300007FE2888010941EA003080B2072877D8CE
:10284000012101FA00F010F0CF0F71D06888022842
:1028500004D33F4840F2C311FDF7F2FD288940F050
:102860000201022905D03A484FF4E271FDF7E8FD74
:102870002889218C21F480712184218CA68821F45F
:10288000007141EA0020A18B6A8840EA022728886B
:1028900021F0730141EA00082C48844202D02A4802
:1028A00084423DD1A88840F00400042804D0284880
:1028B0004FF4F071FDF7C4FD688940F00800082866
:1028C00004D0234840F2E111FDF7BAFDE88940F455
:1028D0000070B0F5007F04D01D484FF4F171FDF792
:1028E000AFFDA88940F48071B1F5807F05D018480C
:1028F00040F2E311FDF7A4FDA8896A894FF2FF3188
:102900004FF47B43394003EA02221143AA8841EA8B
:10291000022726F4405141EA0010E98940EA0116F5
:10292000A680A4F81C80E888A0872784BDE8F081F1
:1029300007484FF4E171FDF783FD87E7000400408D
:1029400000080040000C0040002C01400034014011
:10295000C67500082DE9F04104460D46B4F1804FDC
:1029600013D03648844210D0354884420DD03548C3
:1029700084420AD03448844207D03448844204D088
:1029800033484FF40471FDF75BFD2888010941EAE3
:10299000003080B207284AD8012101FA00F010F077
:1029A000CF0F44D06888022804D3294840F212216E
:1029B000FDF746FD288940F00201022905D0244890
:1029C00040F21321FDF73CFD2889218C21F4805130
:1029D0002184218CA78821F4005141EA0030A18B89
:1029E0006A8840EA0238288821F4E64141EA002654
:1029F0001648844202D0144884420FD1A88940F47A
:102A00008071B1F5807F05D011484FF40C71FDF74E
:102A100017FDA88927F4804141EA8017A780A68383
:102A2000E888A4F84000A4F82080BDE8F0810848B8
:102A300040F21121FDF704FDB4E700BF000400409F
:102A400000080040000C0040002C01400034014010
:102A5000C6750008B0B50D4604462888810841EACD
:102A6000803080B2042804D3AD4840F24E21FDF7F7
:102A7000E7FCA888013880B2032804D3A84840F2B4
:102A80004F21FDF7DDFCE888810841EA803080B203
:102A9000042804D3A2484FF41471FDF7D1FC28890F
:102AA000102804D39E4840F25121FDF7C9FC6888E4
:102AB000B4F1804F0ED09B498C420BD09A498C4286
:102AC00008D09A498C4205D099498C4202D0994944
:102AD0008C4209D140F00200022810D0904840F208
:102AE0005621FDF7ADFC0AE00A2800F20E81012113
:102AF00001FA00F040F20541084200F00681288802
:102B0000082842D0042800F08980002840F0B180D5
:102B1000B4F1804F2ED0834884422BD08248844227
:102B200028D08248844225D08348844222D08548D8
:102B300084421FD0844884421CD07E48844219D0ED
:102B40007B48844216D07D48844213D07F4884421B
:102B500010D07F4884420DD0794884420AD07D4805
:102B6000844207D07C48844204D06D4840F25E2104
:102B7000FDF766FC2B89AA886988204600F0EEF8EC
:102B8000E9882046BDE8B04020E1B4F1804F13D081
:102B90006448844210D0644884420DD06348844223
:102BA0000AD06448844207D06148844204D05C481B
:102BB00040F27221FDF744FC68882989AA88238C99
:102BC000B4F1804F23F4807342EA01112384A28B75
:102BD00022F0F30241EA0201228C0FD0514B9C42B9
:102BE0000CD0514B9C4209D0504B9C4206D0504BCC
:102BF0009C4203D04F4B9C4240F08B804FF47E436D
:102C000022F4407203EA00201043A18340F4807054
:102C100020842046E988BDE8B040C5E1B4F1804F8A
:102C20001CD04048844219D03F48844216D03F48C7
:102C3000844213D04048844210D03E4884420DD094
:102C40003B4884420AD03D48844207D03C488442F5
:102C500004D033484FF41A71FDF7F2FB2B89AA8890
:102C60006988204600F018F9E9882046BDE8B040A0
:102C700050E1B4F1804F13D02A48844210D02A4842
:102C800084420DD0294884420AD02A48844207D081
:102C90002748844204D022484FF41F71FDF7D0FB2F
:102CA0002A896888A988238CB4F1804F23F4805343
:102CB0004FEA0232238442EA012140F6FF43A28B0D
:102CC00002EA030241EA0201228C0ED0154B9C421B
:102CD0000BD0154B9C4208D0144B9C4205D0144B92
:102CE0009C4202D0134B9C4216D14FF4604322F415
:102CF000405203EA00301043A18340F48050208406
:102D00002046E988BDE8B04088E1054840F25A21F4
:102D1000E7E622F4306277E746F6FF531A40EAE727
:102D2000C67500080004004000080040000C004088
:102D300000340140002C01400018004000400140D8
:102D4000004C0140001C00400020004000440140B5
:102D5000004801400050014000540140B0F820C03C
:102D600042EA0312B0F1804F2CF0010CA0F820C011
:102D7000038B23F0F30342EA030C038C0ED00E4ABC
:102D800090420BD00D4A904208D00D4A904205D097
:102D90000C4A904202D00C4A904209D14FF6FD7283
:102DA0001A40A0F818C0114341F001010184704796
:102DB0004FF6F572F4E700BF000400400008004041
:102DC000000C004000340140002C0140B0B5044626
:102DD0000D46B4F1804F2ED0204884422BD020489D
:102DE000844228D01F48844225D01F48844222D0E4
:102DF0001E4884421FD01E4884421CD01D48844275
:102E000019D01D48844216D01C48844213D01C4857
:102E1000844210D01B4884420DD01B4884420AD003
:102E20001A48844207D01A48844204D0194840F610
:102E30003411FDF705FBA80840EA853080B204286C
:102E400004D3144840F63511FDF7FAFA208B20F030
:102E50000C002083208B28432083B0BD0004004059
:102E600000080040000C004000180040001C00401A
:102E700000200040002C014000340140004001408F
:102E80000044014000480140004C01400050014016
:102E900000540140C675000810B5B0F820C01B03EF
:102EA000B0F1804F2CF0100CA0F820C043EA022CA7
:102EB00040F6FF42038B02EA0302038C42EA0C0253
:102EC0000ED00F4CA0420BD00E4CA04208D00E4C9E
:102ED000A04205D00D4CA04202D00D4CA0420BD117
:102EE0004FF6E07423F0300304EA01111943028322
:102EF00041F01001018410BD23F0B003F6E700BFDC
:102F00000004004000080040000C00400034014074
:102F1000002C0140B0B504460D46B4F1804F1CD0E2
:102F20001848844219D01848844216D01748844261
:102F300013D01748844210D0164884420DD016484A
:102F400084420AD01548844207D01548844204D0F0
:102F5000144840F64A11FDF773FAA80840EA853094
:102F600080B2042804D30F4840F64B11FDF768FAED
:102F7000208B20F440602083208B40EA05202083B2
:102F8000B0BD00BF0004004000080040000C00403D
:102F900000180040002C0140003401400040014076
:102FA000004C0140C6750008B0B504460D46B4F1AA
:102FB000804F13D01348844210D0134884420DD060
:102FC000124884420AD01248844207D011488442F1
:102FD00004D011484FF41661FDF732FAA80840EA10
:102FE000853080B2042804D30B4840F66111FDF708
:102FF00027FAA08B20F00C00A083A08B2843A0838D
:10300000B0BD00BF0004004000080040000C0040BC
:10301000002C014000340140C6750008B0B50446DC
:103020000D46B4F1804F13D01348844210D013489A
:1030300084420DD0124884420AD01248844207D0FC
:103040001148844204D0114840F67611FDF7F8F992
:10305000A80840EA853080B2042804D30B4840F623
:103060007711FDF7EDF9A08B20F44060A083A08BD1
:1030700040EA0520A083B0BD0004004000080040E5
:10308000000C0040002C014000340140C6750008CF
:10309000F8B504460D46B4F1804F1CD02648844252
:1030A00019D02648844216D02548844213D025489A
:1030B000844210D0244884420DD0244884420AD04F
:1030C0002348844207D02348844204D0224840F257
:1030D0009321FDF7B5F9AA880126012A08BF022627
:1030E00069882B89B1FA81F040094700288888B1A6
:1030F0002046FFF7D1FEE9882046FFF70BFF2B891A
:10310000B9B2B2B22046FFF729FEE9882046BDE8F1
:10311000F8405BE62046FFF721FEE9882046FFF7EE
:1031200055FE2B89B9B2B2B22046FFF7B5FEE98849
:103130002046BDE8F840EDE60004004000080040ED
:10314000000C004000180040002C014000340140F9
:1031500000400140004C0140C6750008B0B504466F
:1031600031480D4620444FEAB020072856D80121A7
:1031700001FA00F010F0E50F50D0288840F400600C
:10318000B0F5006F04D029484FF43371FDF758F9BA
:10319000688840F48060B0F5806F04D0234840F226
:1031A000CD21FDF74DF9A88800BA000C042804D3FE
:1031B0001E4840F2CE21FDF743F9288940F48050A3
:1031C000B0F5805F04D0194840F2CF21FDF738F9FF
:1031D000688940F40050B0F5005F04D013484FF404
:1031E0003471FDF72DF9A88940F48041B1F5804F85
:1031F00005D00E4840F2D121FDF722F9A88929888F
:103200006A881143AA881143EA8811432A89114325
:103210006A8911430843A4F84400B0BD034840F252
:10322000CB21FDF70DF9A8E700D4FEBFC675000855
:103230004FF6FF714160002101600172704700216B
:10324000C16081604160016070470021012201601E
:10325000426001817047002181818160416001608D
:10326000704700BFB0B504460D46B4F1804F34D06E
:103270002248844231D0224884422ED021488442C0
:103280002BD02148844228D02048844225D0204891
:10329000844222D01F4884421FD01F4884421CD041
:1032A0001E48844219D01E48844216D01D488442CC
:1032B00013D01D48844210D01C4884420DD01C48B5
:1032C00084420AD01B48844207D01B48844204D061
:1032D0001A4840F22931FDF7B3F8022D04D31748FC
:1032E00040F22A31FDF7ACF82088002D40F00101B2
:1032F00008BF20F001012180B0BD00BF00040040E4
:1033000000080040000C0040001000400014004085
:1033100000180040001C004000200040002C01402C
:103320000034014000400140004401400048014099
:10333000004C01400050014000540140C675000897
:10334000B0B5044612480D4620444FEAB020072885
:1033500018D8012101FA00F010F0E50F12D0022D6B
:1033600004D30C4840F24331FDF76AF8B4F8440046
:10337000002D01466FF3DF3118BF40F40041A4F87F
:103380004410B0BD034840F24231FDF759F8E6E77A
:1033900000D4FEBFC675000870B5044616460D463B
:1033A000B4F1804F34D02848844231D02748844239
:1033B0002ED0274884422BD02648844228D0264845
:1033C000844225D02548844222D0254884421FD0FB
:1033D000244884421CD02448844219D02348844283
:1033E00016D02348844213D02248844210D0224869
:1033F00084420DD0214884420AD02148844207D01B
:103400002048844204D0204840F26B31FDF718F880
:1034100015B125F0FF0020B11B484FF45B71FDF79B
:103420000FF85EB1012E04D0174840F26D31FDF760
:1034300007F834F80C0F284380B202E034F80C0F80
:10344000A843208070BD00BF000400400008004079
:10345000000C004000100040001400400018004024
:10346000001C004000200040002C014000340140BE
:10347000004001400044014000480140004C014030
:103480000050014000540140C6750008B0B5054623
:103490000C46B5F1804F34D01F48854231D01F48CB
:1034A00085422ED01E4885422BD01E48854228D00A
:1034B0001D48854225D01D48854222D01C488542A2
:1034C0001FD01C4885421CD01B48854219D01B4880
:1034D000854216D01A48854213D01A48854210D02A
:1034E000194885420DD0194885420AD018488542AE
:1034F00007D01848854204D017484FF46471FCF790
:103500009FFF601E80B2FF2804D3134840F2913120
:10351000FCF796FFAC82B0BD0004004000080040FC
:10352000000C004000100040001400400018004053
:10353000001C004000200040002C014000340140ED
:10354000004001400044014000480140004C01405F
:103550000050014000540140C675000870B5054692
:1035600014460E46B5F1804F1CD01E48854219D036
:103570001D48854216D01D48854213D01C488542FF
:1035800010D01C4885420DD01B4885420AD01B48EC
:10359000854207D01A48854204D01A484FF46B710F
:1035A000FCF74EFF0C2E09D3A6F10C0080B20728C1
:1035B00004D3144840F2AD31FCF742FF60BA06284C
:1035C0000AD3A4F5C06000BA000C0C2804D30D483F
:1035D00040F2AE31FCF734FF44EA0600A5F848009B
:1035E00070BD00BF0004004000080040000C004017
:1035F000002C0140003401400040014000440140E3
:1036000000480140C675000870B5044616460D46D0
:10361000B4F1804F22D01F4884421FD01E488442FC
:103620001CD01E48844219D01D48844216D01D4823
:10363000844213D01C48844210D01C4884420DD0D0
:103640001B4884420AD01B48844207D01A4884424F
:1036500004D01A4840F2C731FCF7F2FE15B125F448
:10366000FE4020B115484FF47271FCF7E9FE5EB1DF
:10367000012E04D0114840F2C931FCF7E1FE34F8C4
:103680000C0F284380B202E034F80C0FA8432080CE
:1036900070BD00BF0004004000080040000C004066
:1036A0000010004000140040002C01400034014094
:1036B000004001400044014000480140C675000838
:1036C00010B50446B4F1804F1CD01148844219D083
:1036D0001048844216D01048844213D00F488442C8
:1036E00010D00F4884420DD00E4884420AD00E48B4
:1036F000844207D00D48844204D00D484FF47871BD
:10370000FCF79EFE208920F00700208110BD00BF3D
:103710000004004000080040000C00400018004079
:10372000002C01400034014000400140004C0140A9
:10373000C6750008B0B504460D46B4F1804F1CD0E4
:103740001848844219D01848844216D01748844239
:1037500013D01748844210D0164884420DD0164822
:1037600084420AD01548844207D01548844204D0C8
:10377000144840F2F331FCF763FE280940EA0530B3
:1037800080B2042804D30F484FF47D71FCF758FE33
:103790002046294600F018F8208940F007002081D3
:1037A000B0BD00BF0004004000080040000C004015
:1037B00000180040002C014000340140004001404E
:1037C000004C0140C6750008B0B504460D46B4F182
:1037D000804F1CD01648844219D01648844216D017
:1037E0001548844213D01548844210D014488442AE
:1037F0000DD0144884420AD01348844207D013489D
:10380000844204D0124840F2D141FCF719FE280945
:1038100040EA053080B2082804D30D4840F2D24176
:10382000FCF70EFE208920F0700028432081B0BDF7
:103830000004004000080040000C00400018004058
:10384000002C01400034014000400140004C014088
:10385000C6750008F8B504461E4617460D46B4F175
:10386000804F1CD02648844219D02648844216D066
:103870002548844213D02548844210D024488442ED
:103880000DD0244884420AD02348844207D02348DC
:10389000844204D0224840F20F41FCF7D1FD402D74
:1038A00018BF502D23D147F00200022804D01C4835
:1038B00040F21141FCF7C4FD102E04D3184840F229
:1038C0001241FCF7BDFD2046394601223346602DEA
:1038D00002D1FFF7E1FA01E0FFF740FA204629465E
:1038E000FFF772FF208940F007002081F8BD602DAE
:1038F000D9D00B484FF48261FCF7A2FDD3E700BF9B
:103900000004004000080040000C00400018004087
:10391000002C01400034014000400140004C0140B7
:10392000C6750008F8B504461D4616460F46B4F1A4
:10393000804F13D01D48844210D01D4884420DD0C2
:103940001C4884420AD01C48844207D01B48844249
:1039500004D01B484FF48761FCF772FD380B40EA36
:10396000071080B2042804D3154840F23941FCF70F
:1039700067FD46F40040B0F5004F04D0104840F217
:103980003A41FCF75DFD102D04D30D4840F23B4158
:10399000FCF756FD2046394632462B4600F012F819
:1039A000208940F077002081F8BD00BF000400406E
:1039B00000080040000C0040002C01400034014091
:1039C000C6750008F8B504461D4616460F46B4F104
:1039D000804F13D01C48844210D01C4884420DD024
:1039E0001B4884420AD01B48844207D01A488442AC
:1039F00004D01A4840F28141FCF722FD380B40EA1E
:103A0000071080B2042804D3144840F28241FCF726
:103A100017FD46F40040B0F5004F04D00F4840F2C7
:103A20008341FCF70DFD102D04D30C4840F2844176
:103A3000FCF706FD218946EA070040EA0520C9B2E5
:103A400008432081F8BD00BF00040040000800408A
:103A5000000C0040002C014000340140C6750008F5
:103A6000F8B504461D4616460F46B4F1804F13D0F4
:103A70001D48844210D01D4884420DD01C48844209
:103A80000AD01C48844207D01B48844204D01B48FB
:103A900040F26141FCF7D4FC380B40EA071080B2D9
:103AA000042804D3154840F26241FCF7C9FC46F4EF
:103AB0000040B0F5004F04D0104840F26341FCF7DD
:103AC000BFFC102D04D30D4840F26441FCF7B8FC54
:103AD0002046394632462B46FFF774FF208940F4D2
:103AE00080402081F8BD00BF000400400008004075
:103AF000000C0040002C014000340140C675000855
:103B000070B5054614460E46B5F1804F34D01F48B7
:103B1000854231D01E4885422ED01E4885422BD08A
:103B20001D48854228D01D48854225D01C48854225
:103B300022D01C4885421FD01B4885421CD01B4800
:103B4000854219D01A48854216D01A48854213D0AA
:103B50001948854210D0194885420DD01848854231
:103B60000AD01848854207D01748854204D0174824
:103B700040F29B41FCF764FC022C04D3134840F252
:103B80009C41FCF75DFC2E85AC8270BD00040040BA
:103B900000080040000C00400010004000140040ED
:103BA00000180040001C004000200040002C014094
:103BB0000034014000400140004401400048014001
:103BC000004C01400050014000540140C6750008FF
:103BD000B0B504460D46B4F1804F13D01548844269
:103BE00010D0154884420DD0144884420AD014489D
:103BF000844207D01348844204D0134840F2B341B2
:103C0000FCF71EFC280940EA053080B206280BD8D4
:103C1000012101FA00F010F0570F05D0208820F0A4
:103C2000700028432080B0BD074840F2B441FCF743
:103C300007FCF3E70004004000080040000C0040CF
:103C4000002C014000340140C6750008F8B5044658
:103C50001D4616460F46B4F1804F16D023488442C5
:103C600013D02348844210D0224884420DD02248E9
:103C700084420AD02148844207D02148844204D09B
:103C800020484FF49F61FCF7DBFB781E80B20328CD
:103C900004D31C4840F2F941FCF7D2FB46F0020085
:103CA000022804D0174840F2FA41FCF7C9FB45F05E
:103CB0000200022804D0134840F2FB41FCF7C0FB8D
:103CC0002089218B228C20F00700384320814FF679
:103CD000FC40084040F20111084322F022012083F9
:103CE00046EA051008432084F4BD00BF00040040EC
:103CF00000080040000C0040002C0140003401404E
:103D000000400140C6750008B0B504460D46B4F148
:103D1000804F2ED01E4884422BD01E48844228D08B
:103D20001D48844225D01D48844222D01C4884422C
:103D30001FD01C4884421CD01B48844219D01B4809
:103D4000844216D01A48844213D01A48844210D0B4
:103D5000194884420DD0194884420AD01848844238
:103D600007D01848844204D0174840F22751FCF786
:103D700067FB45F01000502804D013484FF4A561AC
:103D8000FCF75EFB208B20F0700028432083B0BD41
:103D90000004004000080040000C004000180040F3
:103DA000001C004000200040002C01400034014075
:103DB000004001400044014000480140004C0140E7
:103DC0000050014000540140C6750008B0B50446DB
:103DD0000D46B4F1804F1CD01648844219D01648C5
:103DE000844216D01548844213D01548844210D01E
:103DF000144884420DD0144884420AD013488442A7
:103E000007D01348844204D0124840F23F51FCF7D7
:103E100017FB45F01000502804D00E484FF4A8615D
:103E2000FCF70EFB208B20F4E04040EA05202083C5
:103E3000B0BD00BF0004004000080040000C00407E
:103E400000180040002C01400034014000400140B7
:103E5000004C0140C6750008B0B504460D46B4F1EB
:103E6000804F13D01148844210D0114884420DD0A5
:103E7000104884420AD01048844207D00F48844238
:103E800004D00F4840F25751FCF7DAFA45F0100021
:103E9000502804D00A484FF4AB61FCF7D1FAA08B4C
:103EA00020F070002843A083B0BD00BF0004004094
:103EB00000080040000C0040002C0140003401408C
:103EC000C6750008B0B504460D46B4F1804F13D056
:103ED0001148844210D0114884420DD010488442C9
:103EE0000AD01048844207D00F48844204D00F48BB
:103EF00040F26F51FCF7A4FA45F01000502804D0AE
:103F00000A484FF4AE61FCF79BFAA08B20F4E04026
:103F100040EA0520A083B0BD000400400008004036
:103F2000000C0040002C014000340140C675000820
:103F3000B0B504460D46B4F1804F34D022488442D7
:103F400031D0224884422ED0214884422BD02148AF
:103F5000844228D02048844225D02048844222D060
:103F60001F4884421FD01F4884421CD01E488442F0
:103F700019D01E48844216D01D48844213D01D48D3
:103F8000844210D01C4884420DD01C4884420AD080
:103F90001B48844207D01B48844204D01A4840F290
:103FA0008451FCF74DFA022D04D3174840F2855195
:103FB000FCF746FA2088002D40F0800108BF20F071
:103FC00080012180B0BD00BF000400400008004017
:103FD000000C004000100040001400400018004099
:103FE000001C004000200040002C01400034014033
:103FF000004001400044014000480140004C0140A5
:104000000050014000540140C6750008B0B5044698
:1040100011480D4620444FEAB020072815D8012149
:1040200001FA00F010F0E50F0FD0022D04D30B4879
:1040300040F29D51FCF704FAA088002D40F00401E5
:1040400008BF20F00401A180B0BD044840F29C519B
:10405000FCF7F6F9E9E700BF00D4FEBFC67500081B
:10406000B0B504460D46B4F1804F1CD016488442CA
:1040700019D01648844216D01548844213D01548EA
:10408000844210D0144884420DD0144884420AD08F
:104090001348844207D01348844204D0124840F2A7
:1040A000B551FCF7CDF9022D04D30F4840F2B651BB
:1040B000FCF7C6F9A088002D40F0080108BF20F0E9
:1040C0000801A180B0BD00BF00040040000800400E
:1040D000000C0040002C0140003401400040014031
:1040E0000044014000480140C6750008B0B50446D0
:1040F0000D46B4F1804F16D01348844213D01348B4
:10410000844210D0124884420DD0124884420AD012
:104110001148844207D01148844204D0104840F22C
:10412000CE51FCF78DF9022D04D30D4840F2CF514A
:10413000FCF786F9A088002D40F0010108BF20F0AF
:104140000101A180B0BD00BF000400400008004094
:10415000000C0040002C01400034014000400140B0
:10416000C6750008B0B504460D46B4F1804F2ED098
:104170001E4884422BD01E48844228D01D488442C9
:1041800025D01D48844222D01C4884421FD01C48A0
:1041900084421CD01B48844219D01B48844216D04C
:1041A0001A48844213D01A48844210D019488442D5
:1041B0000DD0194884420AD01848844207D01848C4
:1041C000844204D0174840F2E951FCF739F945F030
:1041D0000800082804D0134840F2EA51FCF730F9EF
:1041E000208B20F0080028432083B0BD000400404D
:1041F00000080040000C004000180040001C004077
:1042000000200040002C01400034014000400140EB
:104210000044014000480140004C01400050014072
:1042200000540140C6750008B0B504460D46B4F10F
:10423000804F1CD01648844219D01648844216D0AC
:104240001548844213D01548844210D01448844243
:104250000DD0144884420AD01348844207D0134832
:10426000844204D0124840F20261FCF7E9F845F0BC
:104270000800082804D00E4840F20361FCF7E0F87B
:10428000208B20F4006040EA05202083B0BD00BFF1
:104290000004004000080040000C004000180040EE
:1042A000002C01400034014000400140004C01401E
:1042B000C6750008B0B504460D46B4F1804F13D062
:1042C0001148844210D0114884420DD010488442D5
:1042D0000AD01048844207D00F48844204D00F48C7
:1042E00040F21A61FCF7ACF845F00800082804D049
:1042F0000A4840F21B61FCF7A3F8A08B20F00800ED
:104300002843A083B0BD00BF000400400008004067
:10431000000C0040002C014000340140C67500082C
:10432000B0B504460D46B4F1804F13D01148844215
:1043300010D0114884420DD0104884420AD0104851
:10434000844207D00F48844204D00F4840F23261C3
:10435000FCF776F845F00800082804D00A4840F237
:104360003361FCF76DF8A08B20F4006040EA052073
:10437000A083B0BD0004004000080040000C0040D5
:10438000002C014000340140C6750008B0B5044659
:104390000D46B4F1804F2ED01E4884422BD01E48CB
:1043A000844228D01D48844225D01D48844222D012
:1043B0001C4884421FD01C4884421CD01B488442A5
:1043C00019D01B48844216D01A48844213D01A4888
:1043D000844210D0194884420DD0194884420AD032
:1043E0001848844207D01848844204D0174840F245
:1043F0004A61FCF725F845F00400042804D013486E
:1044000040F24B61FCF71CF8208B20F0040028439D
:104410002083B0BD0004004000080040000C0040B4
:1044200000180040001C004000200040002C01400B
:104430000034014000400140004401400048014078
:10444000004C01400050014000540140C675000876
:10445000B0B504460D46B4F1804F1CD016488442D6
:1044600019D01648844216D01548844213D01548F6
:10447000844210D0144884420DD0144884420AD09B
:104480001348844207D01348844204D0124840F2B3
:104490006461FBF7D5FF45F00400042804D00E4802
:1044A00040F26561FBF7CCFF208B20F4806040EA8E
:1044B00005202083B0BD00BF00040040000800407C
:1044C000000C004000180040002C01400034014066
:1044D00000400140004C0140C6750008B0B50446DC
:1044E0000D46B4F1804F13D01148844210D01148CA
:1044F00084420DD0104884420AD01048844207D02C
:104500000F48844204D00F4840F27D61FBF798FFCA
:1045100045F00400042804D00A4840F27E61FBF70D
:104520008FFFA08B20F004002843A083B0BD00BF04
:104530000004004000080040000C0040002C014036
:1045400000340140C6750008B0B504460D46B4F10C
:10455000804F13D01148844210D0114884420DD0AE
:10456000104884420AD01048844207D00F48844241
:1045700004D00F4840F29661FBF762FF45F004005B
:10458000042804D00A4840F29761FBF759FFA08B3A
:1045900020F4806040EA0520A083B0BD0004004004
:1045A00000080040000C0040002C01400034014095
:1045B000C6750008B0B504460D46B4F1804F13D05F
:1045C0001148844210D0114884420DD010488442D2
:1045D0000AD01048844207D00F48844204D00F48C4
:1045E00040F2AF61FBF72CFF45F08000802804D03B
:1045F0000A484FF4D661FBF723FF208B20F08000A0
:1046000028432083B0BD00BF0004004000080040E4
:10461000000C0040002C014000340140C675000829
:10462000B0B504460D46B4F1804F13D01148844212
:1046300010D0114884420DD0104884420AD010484E
:10464000844207D00F48844204D00F4840F2C96129
:10465000FBF7F6FE45F08000802804D00A4840F2BF
:10466000CA61FBF7EDFE208B6FF3DF3040EA0520D7
:104670002083B0BD0004004000080040000C004052
:10468000002C014000340140C6750008B0B5044656
:104690000D46B4F1804F13D01148844210D0114818
:1046A00084420DD0104884420AD01048844207D07A
:1046B0000F48844204D00F4840F2E161FBF7C0FE8E
:1046C00045F08000802804D00A4840F2E261FBF700
:1046D000B7FEA08B20F080002843A083B0BD00BFB0
:1046E0000004004000080040000C0040002C014085
:1046F00000340140C6750008B0B504460D46B4F15B
:10470000804F13D01148844210D0114884420DD0FC
:10471000104884420AD01048844207D00F4884428F
:1047200004D00F4840F2F961FBF78AFE45F08000A3
:10473000802804D00A4840F2FA61FBF781FEA08B82
:104740006FF3DF3040EA0520A083B0BD00040040D5
:1047500000080040000C0040002C014000340140E3
:10476000C6750008B0B504460D46B4F1804F2ED092
:104770001E4884422BD01E48844228D01D488442C3
:1047800025D01D48844222D01C4884421FD01C489A
:1047900084421CD01B48844219D01B48844216D046
:1047A0001A48844213D01A48844210D019488442CF
:1047B0000DD0194884420AD01848844207D01848BE
:1047C000844204D0174840F21171FBF739FE45F0DE
:1047D0000200022804D0134840F21271FBF730FEA9
:1047E000208C20F0020028432084B0BD000400404B
:1047F00000080040000C004000180040001C004071
:1048000000200040002C01400034014000400140E5
:104810000044014000480140004C0140005001406C
:1048200000540140C6750008B0B5044610480D4656
:1048300020444FEAB020072814D8012101FA00F0E3
:1048400010F0E50F0ED045F00800082804D0094804
:1048500040F22971FBF7F4FD208C20F0080028437A
:104860002084B0BD03484FF4E561FBF7E9FDEAE7BA
:1048700000D4FEBFC6750008B0B504460D46B4F1BD
:10488000804F1CD01648844219D01648844216D056
:104890001548844213D01548844210D014488442ED
:1048A0000DD0144884420AD01348844207D01348DC
:1048B000844204D012484FF4E861FBF7C1FD45F093
:1048C0000200022804D00E4840F24171FBF7B8FD07
:1048D000208C20F0200040EA05102084B0BD00BFED
:1048E0000004004000080040000C00400018004098
:1048F000002C01400034014000400140004C0140C8
:10490000C6750008B0B504460D480D46844207D070
:104910000C48844204D00C4840F25771FBF790FDDC
:1049200045F00800082804D007484FF4EB61FBF776
:1049300087FD208C20F0800040EA05102084B0BD67
:10494000002C014000340140C6750008B0B5044693
:104950000D46B4F1804F13D01148844210D0114855
:1049600084420DD0104884420AD01048844207D0B7
:104970000F48844204D00F4840F26F71FBF760FD8E
:1049800045F00200022804D00A484FF4EE61FBF71C
:1049900057FD208C20F4007040EA05202084B0BD33
:1049A0000004004000080040000C0040002C0140C2
:1049B00000340140C6750008B0B504460D480D46E8
:1049C000844207D00C48844204D00C4840F28771DE
:1049D000FBF736FD45F00800082804D007484FF4DF
:1049E000F161FBF72DFD208C20F4006040EA0520EA
:1049F0002084B0BD002C014000340140C675000881
:104A0000B0B504460D46B4F1804F13D0114884422E
:104A100010D0114884420DD0104884420AD010486A
:104A2000844207D00F48844204D00F4840F29F715F
:104A3000FBF706FD45F00200022804D00A484FF4B7
:104A4000F461FBF7FDFC208C20F4005040EA0530B7
:104A50002084B0BD0004004000080040000C00406D
:104A6000002C014000340140C675000870B50446B2
:104A700015460E46B4F1804F2ED0264884422BD0E6
:104A80002548844228D02548844225D024488442A1
:104A900022D0244884421FD0234884421CD023487B
:104AA000844219D02248844216D02248844213D02E
:104AB0002148844210D0214884420DD020488442AD
:104AC0000AD02048844207D01F48844204D01F489F
:104AD00040F2BB71FBF7B4FCB00840EA863080B20C
:104AE000042804D3194840F2BC71FBF7A9FC022D3D
:104AF00004D3164840F2BD71FBF7A2FC0120218CC3
:104B0000B04021EA0000208405FA06F0218C084319
:104B1000208470BD0004004000080040000C0040EC
:104B200000180040001C004000200040002C014004
:104B30000034014000400140004401400048014071
:104B4000004C01400050014000540140C67500086F
:104B500070B504461A4815460E4620444FEAB02068
:104B6000072827D8012101FA00F010F0E50F21D025
:104B7000082E05D8012040F21111B040084204D19E
:104B8000104840F2DA71FBF75BFC45F004000428A2
:104B900004D00C4840F2DB71FBF752FC0420218C5E
:104BA000B04021EA0000208405FA06F0218C084379
:104BB000208470BD034840F2D971FBF741FCD7E770
:104BC00000D4FEBFC675000870B5064614460D46F3
:104BD000B6F1804F2ED0354886422BD034488642DD
:104BE00028D03448864225D03348864222D03348E4
:104BF00086421FD0324886421CD03248864219D0A5
:104C00003148864216D03148864213D03048864219
:104C100010D0304886420DD02F4886420AD02F4807
:104C2000864207D02E48864204D02E4840F6030123
:104C3000FBF706FCA80840EA853080B2042804D3BC
:104C4000284840F60401FBF7FBFB200940EA04304A
:104C500080B2082804D3234840F60501FBF7F0FB97
:104C60000120318CA84021EA000045F00801308481
:104C700006F11800082907D169080A5822F07002C5
:104C80000A5000EB55000DE0291FC1F34E021358E6
:104C900023F4E04313504FF6FE72114000EB510035
:104CA00021028CB201682143016070BD0004004004
:104CB00000080040000C004000180040001C0040AC
:104CC00000200040002C0140003401400040014021
:104CD0000044014000480140004C014000500140A8
:104CE00000540140C6750008B0B504460D46B4F145
:104CF000804F34D02248844231D0224884422ED082
:104D0000214884422BD02148844228D02048844224
:104D100025D02048844222D01F4884421FD01F48FB
:104D200084421CD01E48844219D01E48844216D0AA
:104D30001D48844213D01D48844210D01C48844230
:104D40000DD01C4884420AD01B48844207D01B481F
:104D5000844204D01A4840F62F01FBF771FB022D64
:104D600004D317484FF40361FBF76AFB2088002D3A
:104D700040F0020108BF20F002012180B0BD00BF59
:104D80000004004000080040000C004000100040FB
:104D90000014004000180040001C004000200040AB
:104DA000002C01400034014000400140004401401B
:104DB00000480140004C01400050014000540140B7
:104DC000C6750008B0B504460D46B4F1804F34D026
:104DD0002248844231D0224884422ED02148844245
:104DE0002BD02148844228D02048844225D0204816
:104DF000844222D01F4884421FD01F4884421CD0C6
:104E00001E48844219D01E48844216D01D48844250
:104E100013D01D48844210D01C4884420DD01C4839
:104E200084420AD01B48844207D01B48844204D0E5
:104E30001A4840F64B01FBF703FB022D04D3174839
:104E400040F64C01FBF7FCFA2088002D40F00401ED
:104E500008BF20F004012180B0BD00BF0004004065
:104E600000080040000C004000100040001400400A
:104E700000180040001C004000200040002C0140B1
:104E8000003401400040014000440140004801401E
:104E9000004C01400050014000540140C67500081C
:104EA000B0B504460D46B4F1804F1CD0164884427C
:104EB00019D01648844216D01548844213D015489C
:104EC000844210D0144884420DD0144884420AD041
:104ED0001348844207D01348844204D0124840F655
:104EE0006301FBF7ADFA022D04D30F4840F66401CD
:104EF000FBF7A6FAA088002D40F0800108BF20F043
:104F00008001A180B0BD00BF000400400008004047
:104F1000000C004000180040002C0140003401400B
:104F200000400140004C0140C6750008B0B5044681
:104F30000D46B4F1804F34D02248844231D022480B
:104F400084422ED0214884422BD02148844228D04C
:104F50002048844225D02048844222D01F488442E1
:104F60001FD01F4884421CD01E48844219D01E48BE
:104F7000844216D01D48844213D01D48844210D06C
:104F80001C4884420DD01C4884420AD01B488442ED
:104F900007D01B48844204D01A4840F67D01FBF735
:104FA0004FFA45F00800082804D0164840F67E0164
:104FB000FBF746FA208820F008002080208828434C
:104FC0002080B0BD0004004000080040000C0040FC
:104FD000001000400014004000180040001C004079
:104FE00000200040002C01400034014000400140FE
:104FF0000044014000480140004C01400050014085
:1050000000540140C6750008B0B504460D46B4F121
:10501000804F22D01A4884421FD01A4884421CD0A4
:105020001948844219D01948844216D0184884423D
:1050300013D01848844210D0174884420DD0174826
:1050400084420AD01648844207D01648844204D0CD
:10505000154840F69D01FBF7F3F9280940EA0530B1
:1050600080B2082804D3104840F69E01FBF7E8F907
:10507000A08820F07000A080A0882843A080B0BD48
:105080000004004000080040000C004000100040F8
:105090000014004000180040002C01400034014082
:1050A00000400140004C0140C6750008B0B5044600
:1050B0000D46B4F1804F1CD01648844219D01648D2
:1050C000844216D01548844213D01548844210D02B
:1050D000144884420DD0144884420AD013488442B4
:1050E00007D01348844204D0124840F6B401FBF7BD
:1050F000A7F925F00300042804D00E4840F6B501B6
:10510000FBF79EF9208920F00700208120892843A1
:105110002081B0BD0004004000080040000C0040A9
:1051200000180040002C01400034014000400140C4
:10513000004C0140C6750008B0B504460D46B4F1F8
:10514000804F1CD01648844219D01648844216D08D
:105150001548844213D01548844210D01448844224
:105160000DD0144884420AD01348844207D0134813
:10517000844204D0124840F6C901FBF761F945F0BA
:105180008000802804D00E4840F6CA01FBF758F989
:10519000208920F080002081208928432081B0BD13
:1051A0000004004000080040000C004000180040CF
:1051B000002C01400034014000400140004C0140FF
:1051C000C6750008B0B505460C46B5F1804F34D021
:1051D0001B48854231D01B4885422ED01A48854253
:1051E0002BD01A48854228D01948854225D0194825
:1051F000854222D0184885421FD0184885421CD0CD
:105200001748854219D01748854216D0164885425E
:1052100013D01648854210D0154885420DD0154848
:1052200085420AD01448854207D01448854204D0EC
:10523000134840F6DB01FBF703F9AC84B0BD00BFB7
:105240000004004000080040000C00400010004036
:105250000014004000180040001C004000200040E6
:10526000002C014000340140004001400044014056
:1052700000480140004C01400050014000540140F2
:10528000C6750008B0B505460C46B5F1804F34D060
:105290001B48854231D01B4885422ED01A48854292
:1052A0002BD01A48854228D01948854225D0194864
:1052B000854222D0184885421FD0184885421CD00C
:1052C0001748854219D01748854216D0164885429E
:1052D00013D01648854210D0154885420DD0154888
:1052E00085420AD01448854207D01448854204D02C
:1052F000134840F6E901FBF7A3F8AC85B0BD00BF49
:105300000004004000080040000C00400010004075
:105310000014004000180040001C00400020004025
:10532000002C014000340140004001400044014095
:1053300000480140004C0140005001400054014031
:10534000C6750008B0B505460C46B5F1804F2ED0A5
:10535000184885422BD01848854228D017488542E6
:1053600025D01748854222D0164885421FD01648BE
:1053700085421CD01548854219D01548854216D063
:105380001448854213D01448854210D013488542F2
:105390000DD0134885420AD01248854207D01248E2
:1053A000854204D0114840F6F701FBF749F8AC8676
:1053B000B0BD00BF0004004000080040000C0040E9
:1053C00000180040001C004000200040002C01405C
:1053D00000340140004001400044014000480140C9
:1053E000004C01400050014000540140C6750008C7
:1053F000B0B505460C46B5F1804F1CD00F4885422C
:1054000019D00F48854216D00E48854213D00E4859
:10541000854210D00D4885420DD00D4885420AD0F6
:105420000C48854207D00C48854204D00B4840F612
:105430000511FBF705F82C87B0BD00BF0004004044
:1054400000080040000C004000180040002C014003
:105450000034014000400140004C0140C675000886
:10546000B0B505460C46B5F1804F13D00A488542C9
:1054700010D00A4885420DD0094885420AD0094813
:10548000854207D00848854204D0084840F61311E9
:10549000FAF7D6FFAC87B0BD00040040000800401A
:1054A000000C0040002C014000340140C67500088B
:1054B000B0B505460C46B5F1804F13D00B48854278
:1054C00010D00B4885420DD00A4885420AD00A48C0
:1054D000854207D00948854204D0094840F6211189
:1054E000FAF7AEFFA5F84040B0BD00BF0004004091
:1054F00000080040000C0040002C01400034014036
:10550000C6750008B0B504460D46B4F1804F2ED0E4
:10551000214884422BD02148844228D0204884420C
:1055200025D02048844222D01F4884421FD01F48E3
:1055300084421CD01E48844219D01E48844216D092
:105540001D48844213D01D48844210D01C48844218
:105550000DD01C4884420AD01B48844207D01B4807
:10556000844204D01A4840F68C11FAF769FF55B10D
:10557000B5F5807F07D0B5F5007F04D0144840F61C
:105580008D11FAF75DFF208820F44070208020887C
:1055900028432080B0BD00BF000400400008004048
:1055A000000C004000180040001C0040002000409B
:1055B000002C014000340140004001400044014003
:1055C00000480140004C014000500140005401409F
:1055D000C675000810B50446B4F1804F2ED01848A7
:1055E00084422BD01748844228D01748844225D0C3
:1055F0001648844222D0164884421FD0154884425F
:105600001CD01548844219D01448844216D014483E
:10561000844213D01348844210D0134884420DD0E2
:10562000124884420AD01248844207D0114884426A
:1056300004D0114840F69C11FAF702FFA08E10BD6D
:105640000004004000080040000C0040001800402A
:10565000001C004000200040002C014000340140AC
:10566000004001400044014000480140004C01401E
:105670000050014000540140C675000810B50446B2
:10568000B4F1804F1CD00F48844219D00E48844298
:1056900016D00E48844213D00D48844210D00D48D5
:1056A00084420DD00C4884420AD00C48844207D072
:1056B0000B48844204D00B4840F6A911FAF7C0FE0B
:1056C000208F10BD0004004000080040000C004086
:1056D00000180040002C014000340140004001400F
:1056E000004C0140C675000810B50446B4F1804F67
:1056F00013D00B48844210D00A4884420DD00A4887
:1057000084420AD00948844207D00948844204D020
:10571000084840F6B611FAF793FEA08F10BD00BFFF
:105720000004004000080040000C0040002C014034
:1057300000340140C675000810B50446B4F1804F2E
:1057400013D00B48844210D00A4884420DD00A4836
:1057500084420AD00948844207D00948844204D0D0
:10576000084840F6C311FAF76BFEB4F8400010BDCC
:105770000004004000080040000C0040002C0140E4
:1057800000340140C675000810B50446B4F1804FDE
:1057900034D01B48844231D01A4884422ED01A4853
:1057A00084422BD01948844228D01948844225D0FD
:1057B0001848844222D0184884421FD01748844297
:1057C0001CD01748844219D01648844216D0164877
:1057D000844213D01548844210D0154884420DD01D
:1057E000144884420AD01448844207D013488442A3
:1057F00004D013484FF41D61FAF722FEA08C10BDAF
:105800000004004000080040000C00400010004070
:105810000014004000180040001C00400020004020
:10582000002C014000340140004001400044014090
:1058300000480140004C014000500140005401402C
:10584000C675000810B50446B4F1804F34D01B482B
:10585000844231D01A4884422ED01A4884422BD038
:105860001948844228D01948844225D018488442D7
:1058700022D0184884421FD0174884421CD01748B1
:10588000844219D01648844216D01648844213D058
:105890001548844210D0154884420DD014488442E3
:1058A0000AD01448844207D01348844204D01348D5
:1058B00040F6DD11FAF7C4FD208D10BD0004004054
:1058C00000080040000C00400010004000140040A0
:1058D00000180040001C004000200040002C014047
:1058E00000340140004001400044014000480140B4
:1058F000004C01400050014000540140C6750008B2
:10590000B0B505460C46B5F1804F34D02C488542E1
:1059100031D02C4885422ED02B4885422BD02B48A5
:10592000854228D02A48854225D02A48854222D05F
:10593000294885421FD0294885421CD028488542E5
:1059400019D02848854216D02748854213D02748C9
:10595000854210D0264885420DD0264885420AD07F
:105960002548854207D02548854204D024484FF475
:105970002061FAF765FD601E1F2805D8012101FA94
:1059800000F02049084203D1402C18BF802C04D1DC
:10599000288A204018BF0120B0BDB4F5007FF7D0A1
:1059A000B4F5806F18BFB4F5006FF1D0B4F5805F27
:1059B000EED0134840F60121FAF742FDE8E700BFB8
:1059C0000004004000080040000C004000100040AF
:1059D0000014004000180040001C0040002000405F
:1059E000002C0140003401400040014000440140CF
:1059F00000480140004C014000500140005401406B
:105A0000C67500088B800080B0B504460D46B4F121
:105A1000804F34D02048844231D0204884422ED058
:105A20001F4884422BD01F48844228D01E488442FD
:105A300025D01E48844222D01D4884421FD01D48D4
:105A400084421CD01C48844219D01C48844216D081
:105A50001B48844213D01B48844210D01A48844209
:105A60000DD01A4884420AD01948844207D01948F8
:105A7000844204D0184840F62B21FAF7E1FC15B116
:105A800015F4614004D0144840F62C21FAF7D8FCF4
:105A9000E8432082B0BD00BF000400400008004081
:105AA000000C0040001000400014004000180040AE
:105AB000001C004000200040002C01400034014048
:105AC000004001400044014000480140004C0140BA
:105AD0000050014000540140C6750008B0B50546AD
