:020000040800F2
:10000000400400201904000821040008230400080B
:100010002504000827040008290400080000000047
:100020000000000000000000000000002B04000899
:100030002D040008000000002F040008310400080F
:1000400033040008330400083304000833040008B4
:1000500033040008330400083304000833040008A4
:100060003304000833040008330400083304000894
:100070003304000833040008F301000833040008C7
:100080003304000833040008330400083304000874
:100090003304000833040008330400083304000864
:1000A0003304000833040008330400083304000854
:1000B0003304000833040008330400083304000844
:1000C0003304000833040008330400083304000834
:1000D0003304000833040008330400083304000824
:1000E000330400083304000833040008DFF80CD0A0
:1000F00002F04CFE004800470702000840040020C0
:1001000000B585B00121042001F0B7F90121880371
:1001100001F0B3F94FF40070ADF8100018208DF81D
:10012000130003208DF8120004A93E4800F000FAE5
:100130004FF48060ADF8100004208DF8130004A97E
:10014000384800F0F5F94FF4E13000900020ADF8A8
:100150000400ADF80600ADF80800ADF80C000C2066
:10016000ADF80A006946304801F003FB01212E4832
:1001700001F043FC05B000BD00B58BB0012108467D
:1001800001F050F9684602F008FB8020059000203D
:100190000790264801900020049006902248001DF8
:1001A00000901020029014200390002008906946CF
:1001B0001F4802F030FA01211D4802F0FBFA01222B
:1001C0008021194801F0E2FC01220221184802F0C6
:1001D0004FFB0E20002809DB00F01F020121914097
:1001E0004209920002F1E022C2F8001100BF0BB0F8
:1001F00000BD10B54FF4005002F093FD00210C48F3
:1002000002F0D8FA10BD1FB50AA30FCB8DE80F007E
:10021000FFF776FFFFF7B0FF00BFFEE772B600E022
:10022000ABBEFDE70008014000380140000000209F
:10023000440002402048656C6C6F20576F726C64FC
:100240000A2100000CB50020019000906A48006867
:1002500040F480306849086000BF6748006800F4D7
:10026000003000900198401C0190009818B9019846
:10027000B0F5A06FF1D16048006800F4003010B113
:100280000120009001E0002000900098012843D157
:100290005A48006840F01000584908600846006855
:1002A00020F0030008600846006840F00200086083
:1002B00051484068504948600846406848600846D0
:1002C000406840F4806048600846406820F47C1034
:1002D00048600846406840F4E810486008460068F6
:1002E00040F08070086000BF4348006800F0007074
:1002F0000028F9D04048406820F003003E4948609B
:100300000846406840F00200486000BF3A48406834
:1003100000F00C000828F9D10CBD10B5FFF792FFD2
:1003200010BD10B53448006840F001003249086043
:1003300008464068324908402F494860084600682E
:10034000304908402C4908600846006820F48020A5
:1003500008600846406820F4FE0048604FF41F0023
:100360008860FFF7DAFF10BD10B5002100200022E1
:10037000214B5B6803F00C0121B1042906D0082948
:1003800028D107E0204B214C236027E01E4B1F4C57
:10039000236023E0184B5B6803F47010164B5B6816
:1003A00003F48032022303EB904022B9184B4343FD
:1003B000164C23600DE0104B5B6803F4003323B14F
:1003C000134B4343114C236003E00F4B43430F4C4B
:1003D000236003E00C4B0D4C236000BF00BF064BB5
:1003E0005B68C3F303130B4CE15C084B1B68CB4009
:1003F000064C236010BD00000010024000200240A7
:100400000000FFF8FFFFF6FE00127A00180000203F
:1004100000093D001C0000200648804706480047B0
:10042000FEE7FEE7FEE7FEE7FEE7FEE7FEE7FEE7A4
:10043000FEE7FEE723030008ED00000810B50446C0
:10044000FC48844211D0FC4884420ED0FB488442D0
:100450000BD0FB48844208D0FA48844205D0FA48C1
:10046000844202D0F948844200D103E06F21F8A011
:10047000FFF7D4FEEF48844208D10121042001F0A7
:100480004EF80021042001F04AF846E0EA48844290
:1004900008D10121082001F042F80021082001F0D4
:1004A0003EF83AE0E548844208D10121102001F0ED
:1004B00036F80021102001F032F82EE0E0488442A6
:1004C00008D10121202001F02AF80021202001F08C
:1004D00026F822E0DB48844208D10121402001F0C7
:1004E0001EF80021402001F01AF816E0D648844298
:1004F00008D10121802001F012F80021802001F0B4
:100500000EF80AE0D148844207D10121801501F09C
:1005100006F80021A01501F002F810BD10B5012168
:10052000084600F0FCFF0021012000F0F8FF10BD9C
:100530002DE9F05F05460C464FF00009CA4600263B
:100540000027B046B346BB48854211D0BA48854221
:100550000ED0BA4885420BD0B948854208D0B94878
:10056000854205D0B848854202D0B848854200D1BE
:1005700003E0B221B6A0FFF751FEE078A0B1E07829
:10058000042811D0E07828280ED0E07848280BD035
:10059000E078142808D0E078102805D0E0781C28EE
:1005A00002D0E078182800D103E0B321A8A0FFF71B
:1005B00035FE002010B9208800B103E0B421A4A0CA
:1005C000FFF72CFEE07800F00F09E07800F0100053
:1005D00080B1A078012805D0A078022802D0A078A8
:1005E000032800D103E0BB2199A0FFF717FEA078F4
:1005F00040EA0909207838B3D5F8008000261FE0CA
:10060000012000FA06F7208800EA070ABA4516D149
:10061000B7000F2000FA07FB28EA0B0809FA07F0D9
:1006200040EA0808E078282803D10120B04068613A
:1006300005E0E078482802D10120B0402861761C0E
:10064000082EDDD3C5F800802088FF282BDDD5F8E3
:100650000480002623E006F10800012101FA00F7DA
:10066000208800EA070ABA4518D1B7000F2000FA1F
:1006700007FB28EA0B0809FA07F040EA0808E078C7
:10068000282803D106F1080081406961E0784828F4
:1006900004D106F10800012181402961761C082E51
:1006A000D9D3C5F80480BDE8F09F4FF6FF710180F3
:1006B000022181700421C170704770B505460C4657
:1006C00000265C48854211D05B4885420ED05B48CD
:1006D00085420BD05A48854208D05A48854205D0F9
:1006E0005948854202D05948854200D104E04FF470
:1006F0008F7157A0FFF792FD012C25D0022C23D03B
:10070000042C21D0082C1FD0102C1DD0202C1BD045
:10071000402C19D0802C17D0B4F5807F14D0B4F5BC
:10072000007F11D0B4F5806F0ED0B4F5006F0BD000
:10073000B4F5805F08D0B4F5005F05D0B4F5804F04
:1007400002D0B4F5004F00D104E040F21F1140A0E8
:10075000FFF764FDA868204008B1012600E00026EC
:10076000304670BD10B504463248844211D032483C
:1007700084420ED0314884420BD03148844208D0A4
:100780003048844205D03048844202D02F48844209
:1007900000D104E04FF49A712DA0FFF73FFDA0684F
:1007A00080B210BD70B505460C4600262148854232
:1007B00011D0214885420ED0204885420BD02048D8
:1007C000854208D01F48854205D01F48854202D087
:1007D0001E48854200D104E04FF4A2711CA0FFF72F
:1007E0001DFD012C25D0022C23D0042C21D0082C57
:1007F0001FD0102C1DD0202C1BD0402C19D0802CA9
:1008000017D0B4F5807F14D0B4F5007F11D0B4F5C3
:10081000806F0ED0B4F5006F0BD0B4F5805F08D0B8
:10082000B4F5005F05D0B4F5804F02D0B4F5004FA9
:100830001ED123E000080140000C014000100140DF
:100840000014014000180140001C0140002001403C
:100850007372635C73706C5C7372635C73746D331E
:1008600032663130785F6770696F2E630000000078
:1008700040F24511AFF22800FFF7D0FCE8682040B5
:1008800008B1012600E00026304670BD10B50446D0
:10089000FE48844211D0FE4884420ED0FD48844276
:1008A0000BD0FD48844208D0FC48844205D0FC4867
:1008B000844202D0FB48844200D105E04FF4AD7180
:1008C000AFF27400FFF7AAFCE06880B210BD70B50B
:1008D00004460D46ED48844211D0ED4884420ED0C6
:1008E000EC4884420BD0EC48844208D0EB48844268
:1008F00005D0EB48844202D0EA48844200D105E0AA
:1009000040F26911AFF2B800FFF788FC002008B987
:1009100005B105E04FF4B571AFF2CC00FFF77EFCF6
:10092000256170BD70B504460D46D848844211D08B
:10093000D74884420ED0D74884420BD0D648844250
:1009400008D0D648844205D0D548844202D0D54844
:10095000844200D105E040F27911AFF20C10FFF7AC
:100960005DFC002008B905B105E04FF4BD71AFF2A0
:100970002010FFF753FC656170BD70B505460C464D
:100980001646C248854211D0C14885420ED0C148A2
:1009900085420BD0C048854208D0C048854205D06A
:1009A000BF48854202D0BF48854200D105E040F2F1
:1009B0008D11AFF26410FFF731FC012C25D0022C11
:1009C00023D0042C21D0082C1FD0102C1DD0202C7B
:1009D0001BD0402C19D0802C17D0B4F5807F14D0B8
:1009E000B4F5007F11D0B4F5806F0ED0B4F5006F70
:1009F0000BD0B4F5805F08D0B4F5005F05D0B4F536
:100A0000804F02D0B4F5004F00D105E04FF4C7711C
:100A1000AFF2C410FFF702FC0EB1012E00D105E0C9
:100A200040F28F11AFF2D810FFF7F8FB0EB12C6136
:100A300000E06C6170BD70B504460D469348844279
:100A400011D0934884420ED0924884420BD09248F1
:100A5000844208D09148844205D09148844202D013
:100A60009048844200D105E04FF4D271AFF22020CB
:100A7000FFF7D4FBE56070BD70B504460D464FF43A
:100A800080368248844211D0814884420ED0814809
:100A900084420BD08048844208D08048844205D0EC
:100AA0007F48844202D07F48844200D105E040F272
:100AB000B511AFF26420FFF7B1FB002008B905B112
:100AC00005E04FF4DB71AFF27820FFF7A7FB2E4370
:100AD000A661A561A661A669A66970BD70B5054647
:100AE0000C4600263DB1012D05D0022D03D0032D6B
:100AF00001D0042D00D105E04FF4E971AFF2B02030
:100B0000FFF78CFBECB1012C1BD0022C19D0032C6D
:100B100017D0042C15D0052C13D0062C11D0072C7F
:100B20000FD0082C0DD0092C0BD00A2C09D00B2C7F
:100B300007D00C2C05D00D2C03D00E2C01D00F2C7F
:100B400000D105E040F2D311AFF2FC20FFF766FBC5
:100B5000554806684FF68070064046EA051626435B
:100B60005148066070BD10B504460CB1012C00D18F
:100B700005E04FF4F371AFF22830FFF74FFB4B481D
:100B8000C46110BD2DE9F04704460E460027B84663
:100B90000025A946012C77D0022C75D0042C73D0E7
:100BA000082C71D0424884426ED0414820308442A3
:100BB0006AD04048844267D03E488030844263D047
:100BC0003D48844260D03D4884425DD03C488442E8
:100BD0005AD03C48844257D03B48844254D0B4F564
:100BE000805F51D0B4F5EA1F4ED0B4F5EB1F4BD067
:100BF000B4F5004F48D03548844245D0401C84426B
:100C000042D0801C84427FD0001D84427CD02F487B
:100C10000F30844278D0B4F1201F75D04FEAF03005
:100C2000844271D02A4884426ED02A4884426BD0D4
:100C30002948844268D02948844265D028488442A3
:100C400062D0B4F5011F5FD0264884425CD0401CBE
:100C5000844259D0801C844256D0001D844253D017
:100C600020480F3084424FD01E481F3084424BD062
:100C70001C483F30844247D01A487F30844243D0DA
:100C80001848FF3084422FE03EE000000008014099
:100C9000000C014000100140001401400018014008
:100CA000001C0140002001400000014000002042E3
:100CB0001000140040001600000118000002180087
:100CC0000003180000081A00000C1A0001002000A0
:100CD000000130000002300000043000001120004C
:100CE00000202000010000800ED0664884420BD016
:100CF0006548844208D06548844205D064488442EF
:100D000002D06448844200D105E040F22A21AFF2CB
:100D1000C040FFF783FA0EB1012E00D105E040F28A
:100D20002B21AFF2D440FFF779FA04F00040B0F184
:100D3000004F02D15848C56901E057484568C4F3DF
:100D40000349A7B204F44010B0F5401F08D125F0C4
:100D500070655148406820F070604F49486013E06A
:100D600004F48010B0F5801F07D1032000FA09F8C1
:100D700025EA080545F0706506E0600D000107FAF8
:100D800000F0854345F0706526B1600D010107FA5A
:100D900001F0054304F00040B0F1004F02D13E489D
:100DA000C56101E03C484560BDE8F08770B5054687
:100DB0000C4600265DB1012D09D0022D07D0032D70
:100DC00005D0042D03D0052D01D0062D00D105E05E
:100DD00040F26521AFF28850FFF720FAECB1012C08
:100DE0001BD0022C19D0032C17D0042C15D0052CA5
:100DF00013D0062C11D0072C0FD0082C0DD0092CA5
:100E00000BD00A2C09D00B2C07D00C2C05D00D2CA4
:100E100003D00E2C01D00F2C00D105E040F266214A
:100E2000AFF2D450FFF7FAF9A007010F0F2000FA34
:100E300001F619480830A11050F82100B0431649B6
:100E40000831A21041F822000846A11050F82100F4
:100E5000A107090F05FA01F108430F490831A21053
:100E600041F8220070BD10B504460CB1012C00D130
:100E700005E04FF41E71AFF22860FFF7CFF9074885
:100E8000046010BD000200800004008000080080A3
:100E9000001000800020008000000140DC002042A3
:100EA000FE48006840F00100FC49086008464068C0
:100EB000FB490840F949486008460068F94908407C
:100EC000F64908600846006820F48020086008465B
:100ED000406820F4FE0048604FF41F0088607047AF
:100EE00010B504462CB1B4F5803F02D0B4F5802F84
:100EF00000D104E040F21111EBA0FFF78FF9E748B1
:100F0000006820F48030E54908600846006820F455
:100F100080200860B4F5803F03D0B4F5802F0ED157
:100F200006E0DE48006840F48030DC49086007E0F5
:100F3000DA48006840F4A020D849086000E000BF0B
:100F400000BF10BD2DE9F041044600250026002712
:100F5000212C13D0312C11D0392C0FD0412C0DD095
:100F6000612C0BD07A2C09D07B2C07D07C2C05D09F
:100F70007D2C03D07E2C01D07F2C00D104E040F2E8
:100F80003451C9A0FFF74AF96511012D02D1C348B8
:100F9000066806E0022D02D1C048066A01E0BF489B
:100FA000466A04F01F050120A840304008B101271F
:100FB00000E000273846BDE8F08138B500200090F9
:100FC0000024002500BF3120FFF7BCFF0546009834
:100FD000401C00900098B0F5A06F01D0002DF2D019
:100FE0003120FFF7AFFF08B1012400E000242046C4
:100FF00038BD70B5044600251F2C00DC04E04FF41A
:10100000A971A9A0FFF70AF9A448056825F0F80519
:1010100045EAC405056070BD10B504460CB1012C4D
:1010200000D104E040F265119FA0FFF7F7F8A54852
:10103000046010BD70B505460C4600262DB1B5F50F
:10104000803F02D0B5F5403F00D104E040F27F116F
:1010500095A0FFF7E3F84CB3B4F5802F26D0B4F594
:10106000002F23D0B4F5402F20D0B4F5801F1DD021
:10107000B4F5A01F1AD0B4F5C01F17D0B4F5E01F07
:1010800014D0B4F5001F11D0B4F5101F0ED0B4F574
:10109000201F0BD0B4F5301F08D0B4F5401F05D089
:1010A000B4F5501F02D0B4F5601F00D104E04FF436
:1010B000C0717DA0FFF7B2F87848466826F47C1628
:1010C00045EA040006437548466070BD10B5044605
:1010D0000CB1012C00D104E04FF4CA7172A0FFF7EB
:1010E0009DF87848046610BD70B5044600251CB113
:1010F000012C01D0022C00D104E04FF40E716AA043
:10110000FFF78CF86548456825F0030525434560E1
:1011100070BD6248406800F00C00704770B504462E
:1011200000257CB1802C0DD0902C0BD0A02C09D0A8
:10113000B02C07D0C02C05D0D02C03D0E02C01D08F
:10114000F02C00D104E04FF4197157A0FFF766F8B6
:101150005248456825F0F0052543456070BD70B5DF
:10116000044600255CB1B4F5806F08D0B4F5A06FDB
:1011700005D0B4F5C06F02D0B4F5E06F00D104E043
:1011800040F27E2148A0FFF749F84448456825F41D
:10119000E0652543456070BD70B5044600255CB12F
:1011A000B4F5806F08D0B4F5A06F05D0B4F5C06F6A
:1011B00002D0B4F5E06F00D104E04FF426713AA0FC
:1011C000FFF72CF83548456825F4605545EAC40515
:1011D000456070BD70B504460D4604F0E00008B9E6
:1011E00004B104E040F2BF212FA0FFF717F80DB1C2
:1011F000012D00D104E04FF430712BA0FFF70EF861
:101200002DB12648407A20432449487204E02348FF
:10121000407AA0432149487270BD10B504460CB114
:10122000012C00D104E040F2DB211FA0FEF7F6FF05
:101230002448D830046010BD70B50446002544B180
:10124000B4F5804F05D0B4F5004F02D0B4F5404F4F
:1012500000D104E040F2023113A0FEF7DFFF0F4897
:10126000456825F440452543456070BD10B50446EA
:101270001CB1012C01D0042C00D104E04FF45071BA
:1012800009A0FEF7CBFF0020044920310870034974
:1012900081F82000012C19D0042C15E00010024028
:1012A0000000FFF8FFFFF6FE7372635C73706C5C06
:1012B0007372635C73746D3332663130785F72635E
:1012C000632E63000000424208D103E00120F4498C
:1012D000087004E00520F249087000E000BF00BF7C
:1012E00010BD10B504460CB1012C00D105E040F250
:1012F0006131AFF24C00FEF791FFEA48046010BD87
:1013000010B50446B4F5807F05D0B4F5007F02D057
:10131000B4F5407F00D105E040F27231AFF27800C1
:10132000FEF77CFFDE482038006A2043DC49203984
:10133000086210BD10B504460CB1012C00D105E0C7
:101340004FF46071AFF2A000FEF768FFD548443853
:10135000046010BD30B50021002200240023D04DD0
:10136000203D6D6805F00C0121B1042905D0082944
:1013700026D105E0CC4D056025E0CB4D056022E08F
:10138000C74D203D6D6805F47012C54D203D6D6858
:1013900005F48034022505EB92421CB9C34D554338
:1013A00005600CE0BE4D203D6D6805F400351DB1B3
:1013B000BE4D5543056002E0BB4D5543056002E05C
:1013C000B94D056000BF00BFB54D203D6D6805F00B
:1013D000F0010909B64D6B5C0568DD404560B04D14
:1013E000203D6D6805F4E061090AB14D6B5C45680C
:1013F000DD408560AA4D203D6D6805F46051C90A45
:10140000AB4D6B5C4568DD40C560A54D203D6D680A
:1014100005F44041890BA74D6B5CC568B5FBF3F53E
:10142000056130BD70B504460D4640F2575024EAC0
:10143000000008B904B105E040F22B41AFF298106A
:10144000FEF7ECFE0DB1012D00D105E040F22C417C
:10145000AFF2AC10FEF7E2FE3DB191482038406992
:1014600020438F492039486106E08D482038406983
:10147000A0438B492039486170BD70B504460D46C4
:101480008D48204008B904B105E040F24A41AFF26E
:10149000E810FEF7C3FE0DB1012D00D105E040F2CA
:1014A0004B41AFF2FC10FEF7B9FE3DB17C4820384D
:1014B000806920437A492039886106E078482038DD
:1014C0008069A04376492039886170BD70B50446B3
:1014D0000D467A48204008B904B105E040F2694160
:1014E000AFF23C20FEF79AFE0DB1012D00D105E0D0
:1014F00040F26A41AFF25020FEF790FE3DB16848DD
:101500002038C069204366492039C86106E0644834
:101510002038C069A04362492039C86170BD70B5E8
:1015200004460D466448204008B904B105E040F285
:10153000A441AFF28C20FEF771FE0DB1012D00D158
:1015400005E040F2A541AFF2A020FEF767FE3DB1F5
:1015500053482038C068204351492039C86006E00C
:101560004F482038C068A0434D492039C86070BD3D
:1015700070B504460D465148204008B904B105E055
:1015800040F2C341AFF2E020FEF748FE0DB1012D5D
:1015900000D105E040F2C441AFF2F420FEF73EFE78
:1015A0003DB13F482038006920433D49203908615A
:1015B00006E03B4820380069A043394920390861DA
:1015C00070BD10B504460CB1012C00D105E04FF4FC
:1015D0009B61AFF22C30FEF721FE324840380460A8
:1015E00010BD10B504460CB1012C00D105E040F24D
:1015F000E541AFF24C30FEF711FE3148C46410BD36
:1016000010B504463CB1052C05D0042C03D0062CA3
:1016100001D0072C00D105E040F20551AFF278303F
:10162000FEF7FCFD1E482038C47110BD1C48203850
:10163000406A40F080701A4920394862704770B59E
:1016400004460025012C09D0022C07D0042C05D01B
:10165000082C03D0102C01D0802C00D105E040F2E2
:101660007E51AFF2BC30FEF7D9FD0D4820388068BE
:10167000204008B1012500E00025284670BD10B5C6
:10168000044604F0600008B904B105E040F2AB5133
:10169000AFF2EC30FEF7C2FD01482038847210BD75
:1016A000201002408004424200127A0000093D00EE
:1016B0002C0000203C0000200200C0FF0036018109
:1016C0000000424210B50446FE4884420BD0FE485A
:1016D000844208D0FD48844205D0FD48844202D0AF
:1016E000FC48844200D103E08521FBA0FEF796FD73
:1016F000F448844209D101218803FFF710FF00213B
:101700004FF48040FFF70BFF32E0EF48844209D1ED
:1017100001214804FFF72CFF00214FF40030FFF7B0
:1017200027FF25E0E948844209D101218804FFF719
:101730001FFF00214FF48020FFF71AFF18E0E44854
:10174000844209D10121C804FFF712FF00214FF4A0
:101750000020FFF70DFF0BE0DE48844208D1012195
:101760000805FFF705FF00214FF48010FFF700FF89
:1017700010BD2DE9F04786B005460C460026B2465E
:1017800000BFB1460027CF4885420BD0CE488542E6
:1017900008D0CE48854205D0CD48854202D0CD48FC
:1017A000854200D103E0B821CBA0FEF737FD2068C9
:1017B00020B1D1492068884200D203E0B921C6A0F7
:1017C000FEF72CFDA08818B1A088B0F5805F00D18D
:1017D00003E0BA21C0A0FEF721FDE08858B1E088FF
:1017E000B0F5805F07D0E088B0F5005F03D0E088F7
:1017F000B0F5405F00D103E0BB21B7A0FEF70EFDBE
:10180000208938B12089B0F5806F03D02089B0F5E8
:10181000C06F00D103E0BC21AFA0FEF7FFFC6089E0
:101820004FF6F371084010B9608900B103E0BD21A3
:10183000A9A0FEF7F3FCA08958B1A089B0F5807F7C
:1018400007D0A089B0F5007F03D0A089B0F5407F14
:1018500000D103E0BE21A0A0FEF7E0FCA08968B1A2
:101860009848854205D09848854202D097488542DD
:1018700000D103E0C22198A0FEF7D0FC2F462E8AAB
:101880004CF6FF700640E08806432E82AE894EF685
:10189000F3100640A0882189084361890843064364
:1018A000AE81AE8A4FF6FF400640A0890643AE8265
:1018B00001A8FFF74FFD8348874202D1DDF810A051
:1018C00001E0DDF80CA0A88900F4004040B10AEB6B
:1018D000CA0000EB0A1021684900B0FBF1F807E0EC
:1018E0000AEBCA0000EB0A1021688900B0FBF1F88E
:1018F0006420B8FBF0F006013009642101FB108977
:10190000A88900F4004040B1322000EBC900B0FBD0
:10191000F1F000F00700064308E0322000EB091068
:101920006421B0FBF1F000F00F0006432E8106B0F9
:10193000BDE8F0874FF41651016000218180C1801D
:1019400001810C21418100218181704770B50546DC
:101950000C4600265B48854205D05B48854202D094
:101960005A48854200D104E04FF499715AA0FEF71D
:1019700055FC208818B12088B0F5006F00D104E034
:1019800040F2331154A0FEF749FC608818B160881A
:10199000B0F5806F00D104E04FF49A714EA0FEF7CD
:1019A0003DFCA08818B1A088B0F5007F00D104E00C
:1019B00040F2351148A0FEF731FCE08818B1E0880C
:1019C000B0F5807F00D104E04FF49B7142A0FEF798
:1019D00025FC2E8A4FF2FF000640208861880843CC
:1019E000A1880843E188084306432E8270BD002188
:1019F000018041808180C180704770B504460D46EA
:101A0000304884420BD03048844208D02F4884426A
:101A100005D02F48844202D02E48844200D104E0F1
:101A20004FF4B1712CA0FEF7F9FB0DB1012D00D1DF
:101A300004E040F2631128A0FEF7F0FB25B1A08975
:101A400040F40050A08104E0A0894DF6FF710840E9
:101A5000A08170BD2DE9F04705460C4617464FF0B2
:101A60000008C246C1460026164885420BD01648DB
:101A7000854208D01548854205D01548854202D0D8
:101A80001448854200D104E040F2891112A0FEF70B
:101A9000C5FB282C36D040F22770844232D040F269
:101AA000266084422ED040F2255084422AD040F253
:101AB0002440844226D040F64600844222D040F69C
:101AC0006A101BE00038014000440040004800401C
:101AD000004C0040005000407372635C73706C5C9B
:101AE0007372635C73746D3332663130785F757313
:101AF0006172742E6300000021AA4400844201D068
:101B0000602C00D105E04FF4C571AFF23400FEF750
:101B100085FB0FB1012F00D105E040F28B11AFF230
:101B20004800FEF77BFB40F66A1084420FD1F9486B
:101B3000854205D0F848854202D0F848854200D158
:101B400005E040F28F11AFF27000FEF767FB2E4602
:101B5000C4F3421804F01F0A012000FA0AF9B8F190
:101B6000010F01D10C3605E0B8F1020F01D110369A
:101B700000E0143627B1306840EA0900306003E025
:101B8000306820EA09003060BDE8F08770B504468F
:101B90000D461646DF4884420BD0DF48844208D009
:101BA000DE48844205D0DE48844202D0DD488442CB
:101BB00000D105E040F2C311AFF2E400FEF72EFBC6
:101BC0004FF63F70284008B905B105E04FF4E271C7
:101BD000AFF2FC00FEF722FB0EB1012E00D105E0B2
:101BE00040F2C511AFF21010FEF718FB1EB1A08A2B
:101BF0002843A08202E0A08AA843A08270BD70B5ED
:101C000004460D46C34884420BD0C348844208D0E2
:101C1000C248844205D0C248844202D0C1488442AE
:101C200000D105E040F2DF11AFF25410FEF7F6FAF2
:101C30000F2D00DC05E04FF4F071AFF26410FEF7F9
:101C4000EDFA208A4FF6F07108402082208A28435E
:101C5000208270BD70B504460D46AE4884420BD05C
:101C6000AD48844208D0AD48844205D0AC48844297
:101C700002D0AC48844200D105E04FF4FB71AFF2D2
:101C8000A810FEF7CBFA15B1B5F5006F00D105E04D
:101C900040F2F711AFF2C010FEF7C0FAA0894FF280
:101CA000FF710840A081A0892843A08170BD70B554
:101CB00004460D46974884420BD09748844208D08A
:101CC0009648844205D09648844202D09548844282
:101CD00000D105E040F20921AFF20420FEF79EFAA0
:101CE0000DB1012D00D105E040F20A21AFF218201C
:101CF000FEF794FA25B1A08940F00200A08104E02B
:101D0000A0894FF6FD710840A08170BD70B50446F2
:101D10000D46804884420BD07F48844208D07F48DB
:101D2000844205D07E48844202D07E48844200D15D
:101D300005E040F22621AFF26020FEF76FFA0DB108
:101D4000202D00D105E040F22721AFF27420FEF7EC
:101D500065FA208A4FF6DF7108402082208A2843E6
:101D6000208270BD70B504460D466A4884420BD08F
:101D70006948844208D06948844205D06848844252
:101D800002D06848844200D105E040F23921AFF228
:101D9000B820FEF743FA0DB1012D00D105E040F265
:101DA0003A21AFF2CC20FEF739FA25B1208A40F46F
:101DB0008040208204E0208A4BF6FF710840208298
:101DC00070BD70B504460D46524884420BD052484F
:101DD000844208D05148844205D05148844202D000
:101DE0005048844200D105E040F25321AFF2183050
:101DF000FEF714FAB5F5007F00DA05E04FF415712F
:101E0000AFF22C30FEF70AFAC5F30800A08070BDCF
:101E100010B504463F4884420BD03F48844208D066
:101E20003E48844205D03E48844202D03D48844228
:101E300000D105E04FF41971AFF26430FEF7EEF90E
:101E4000A088C0F3080010BD10B504463148844294
:101E50000BD03148844208D03048844205D0304805
:101E6000844202D02F48844200D105E04FF41D7116
:101E7000AFF29C30FEF7D2F9A08940F00100A081BA
:101E800010BD70B504460D462248844205D0224854
:101E9000844202D02148844200D105E04FF42171F0
:101EA000AFF2CC30FEF7BAF9208BC0B22083208B82
:101EB00040EA0520208370BD70B504460D461548E4
:101EC00084420BD01448844208D01448844205D080
:101ED0001348844202D01348844200D105E04FF4F5
:101EE0002671AFF20C40FEF799F9208B00F47F4089
:101EF0002083208B2843208370BD70B504460D4697
:101F00000448844205D00448844202D003488442F5
:101F10000AD10FE000380140004400400048004072
:101F2000004C00400050004040F2AB21AFF258405E
:101F3000FEF774F90DB1012D00D105E04FF42B71BE
:101F4000AFF26C40FEF76AF925B1A08A40F020009C
:101F5000A08204E0A08A4FF6DF710840A08270BD25
:101F600070B504460D46F948844205D0F8488442CD
:101F700002D0F848844200D105E04FF43171AFF24D
:101F8000A840FEF74BF90DB1012D00D105E040F25C
:101F9000C521AFF2BC40FEF741F925B1A08A40F05F
:101FA0001000A08204E0A08A4FF6EF710840A082E2
:101FB00070BD70B504460D46E44884420BD0E44839
:101FC000844208D0E348844205D0E348844202D0EA
:101FD000E248844200D105E040F2DE21AFF2085031
:101FE000FEF71CF90DB1012D00D105E040F2DF2113
:101FF000AFF21C50FEF712F925B1A08A40F008009C
:10200000A08204E0A08A4FF6F7710840A08270BD5C
:1020100070B504460D46CD4884420BD0CC4884426E
:1020200008D0CC48844205D0CB48844202D0CB486B
:10203000844200D105E040F2FD21AFF26450FEF78A
:10204000EDF80DB1012D00D105E040F2FE21AFF217
:102050007850FEF7E3F825B1A08940F40040A08154
:1020600003E0A089C0F30E00A08170BD70B50446E6
:102070000D46B64884420BD0B548844208D0B548D6
:10208000844205D0B448844202D0B448844200D18E
:1020900005E04FF44671AFF2C050FEF7BFF80DB146
:1020A000012D00D105E040F21931AFF2D450FEF716
:1020B000B5F825B1A08A40F40060A08204E0A08AAF
:1020C0004FF2FF710840A08270BD70B504460D4606
:1020D0009E4884420BD09E48844208D09D4884424A
:1020E00005D09D48844202D09C48844200D105E03E
:1020F00040F23531AFF22060FEF790F8042D00D0A9
:1021000005B905E040F23631AFF23460FEF786F8EB
:10211000A08A4FF6FB710840A082A08A2843A082C3
:1021200070BD70B504460D46884884420BD088487F
:10213000844208D08748844205D08748844202D030
:102140008648844200D105E04FF45271AFF27860C6
:10215000FEF764F80DB1012D00D105E040F24931E0
:10216000AFF28C60FEF75AF825B1A08A40F0020069
:10217000A08204E0A08A4FF6FD710840A08270BDE5
:1021800070B505460C460026704885420BD0704855
:10219000854208D06F48854205D06F48854202D0FD
:1021A0006E48854200D105E040F26E31AFF2D86052
:1021B000FEF734F8012C13D0802C11D0402C0FD016
:1021C000202C0DD0102C0BD0B4F5807F08D0B4F5A6
:1021D000007F05D0082C03D0042C01D0022C00D1A4
:1021E00005E040F26F31AFF21070FEF717F8B4F56A
:1021F000007F0FD15548854205D05548854202D011
:102200005448854200D105E040F27331AFF2387096
:10221000FEF704F82888204008B1012600E00026D7
:10222000304670BD70B504460D46484884420BD018
:102230004748844208D04748844205D046488442F3
:1022400002D04648844200D105E040F29E31AFF210
:102250007870FDF7E3FF4FF69F40284008B905B1BD
:1022600005E040F29F31AFF29070FDF7D7FF05F423
:102270000070B0F5007F0FD13448844205D0344857
:10228000844202D03348844200D105E040F2A331B9
:10229000AFF2BC70FDF7C2FFE843208070BD2DE9AE
:1022A000F04705460C4600270026B046B1462748B1
:1022B00085420BD02648854208D02648854205D065
:1022C0002548854202D02548854200D105E040F2EC
:1022D000C131AFF2FC70FDF7A1FF282C20D040F2F5
:1022E000277084421CD040F22660844218D040F20D
:1022F0002550844214D040F22440844210D040F64D
:10230000460084420CD040F66A10844208D0B4F5EE
:10231000587F05D0B4F5187F02D0B4F5B07F00D156
:1023200005E040F2C231AFF65000FDF777FF40F60E
:102330006A1084421AD10548854205D00448854276
:1023400002D0044885420BD110E000000038014063
:102350000044004000480040004C00400050004055
:1023600040F2C631AFF69000FDF758FFC4F34218B3
:1023700004F01F06012000FA06F6B8F1010F02D1A1
:10238000A889064007E0B8F1020F02D1288A06406A
:1023900001E0A88A06402712012000FA07F72888E2
:1023A00007401EB117B14FF0010901E04FF00009DD
:1023B0004846BDE8F0872DE9F04104460D46002669
:1023C0000027244884420BD02348844208D0234865
:1023D000844205D02248844202D02248844200D15F
:1023E00005E040F20A41AFF61010FDF717FF40F28A
:1023F000266085420BD040F22550854207D040F63A
:102400004600854203D040F66A10854200D105E0BF
:1024100040F20B41AFF64010FDF700FF40F66A10A6
:1024200085420FD10B48844205D00B48844202D02C
:102430000A48844200D105E040F20F41AFF668102F
:10244000FDF7ECFE2E120120B04087B2F843208049
:10245000BDE8F081003801400044004000480040E1
:10246000004C00400050004010B50446F74884423C
:102470002AD0F6481430844226D0F44828308442CA
:1024800022D0F2483C3084421ED0F0485030844282
:102490001AD0EE486430844216D0EC48783084423A
:1024A00012D0EB4884420FD0E948143084420BD05C
:1024B000E7482830844207D0E5483C30844203D0C6
:1024C000E3485030844200D103E06F21E1A0FDF7E2
:1024D000A5FE20684FF6FE710840206000202060B5
:1024E0006060A060E060D948844208D1D7480838CD
:1024F000406840F00F00D549083948608AE0D34869
:102500001430844208D1D1480838406840F0F000C7
:10251000CE49083948607DE0CC482830844208D153
:10252000CA480838406840F47060C84908394860B3
:1025300070E0C6483C30844208D1C448083840683E
:1025400040F47040C1490839486063E0BF485030EA
:10255000844208D1BD480838406840F47020BB4927
:102560000839486056E0B9486430844208D1B74819
:102570000838406840F47000B4490839486049E0C0
:10258000B2487830844208D1B0480838406840F0FA
:102590007060AE49083948603CE0AD48844206D1DD
:1025A000001F006840F00F00211F086032E0A848BB
:1025B0001430844208D1A648001F006840F0F000A3
:1025C000A349091F086025E0A1482830844208D1AA
:1025D0009F48001F006840F470609D49091F086013
:1025E00018E09B483C30844208D19948001F00689D
:1025F00040F470409649091F08600BE09448503041
:10260000844207D19248001F006840F4702090492E
:10261000091F086010BD70B505460C4600268B48A2
:1026200085422AD089481430854226D087482830F0
:10263000854222D085483C3085421ED083485030A8
:1026400085421AD081486430854216D07F48783060
:10265000854212D07E4885420FD07D481430854295
:102660000BD07B482830854207D079483C308542E2
:1026700003D077485030854200D103E0CF2175A0C8
:10268000FDF7CCFDA068102801D0A06800B903E0D8
:10269000D02170A0FDF7C2FDE06820B1E068B0F580
:1026A000803F00D203E0D1216AA0FDF7B7FD206989
:1026B000402801D0206900B903E0D22165A0FDF7D0
:1026C000ADFD6069802801D0606900B903E0D321C5
:1026D00060A0FDF7A3FDA06938B1A069B0F5807FC7
:1026E00003D0A069B0F5007F00D103E0D42159A048
:1026F000FDF794FDE06938B1E069B0F5806F03D073
:10270000E069B0F5006F00D103E0D52151A0FDF7DD
:1027100085FD206A202801D0206A00B903E0D62177
:102720004CA0FDF77BFD606AB0F5405F09D0606AA0
:10273000B0F5005F05D0606AB0F5805F01D0606AD7
:1027400000B903E0D72143A0FDF768FDA06AB0F50A
:10275000804F01D0A06A00B903E0D8213DA0FDF769
:102760005DFD2E6847F6F0708643216AA068084335
:102770002169084361690843A1690843E169084385
:10278000616A0843A16A084306432E60E0686860F6
:102790002068A8606068E86070BD00210160416049
:1027A0008160C160016141618161C1610162416219
:1027B0008162704770B504460D46244884422AD091
:1027C00022481430844226D020482830844222D027
:1027D0001E483C3084421ED01C48503084421AD0DF
:1027E0001A486430844216D018487830844212D097
:1027F000174884420FD01648143084420BD0144836
:102800002830844207D012483C30844203D010481C
:102810005030844200D104E040F229110DA0FDF7B0
:10282000FDFC0DB1012D00D104E04FF4957109A01C
:10283000FDF7F4FC25B1206840F00100206004E0C1
:1028400020684FF6FE710840206070BD080002400D
:10285000080402407372635C73706C5C7372635C37
:1028600073746D3332663130785F646D612E63004E
:1028700070B504460D461646FE4884422AD0FD48EF
:102880001430844226D0FB482830844222D0F948B4
:102890003C3084421ED0F748503084421AD0F5486C
:1028A0006430844216D0F3487830844212D0F24823
:1028B00084420FD0F048143084420BD0EE482830C8
:1028C000844207D0EC483C30844203D0EA48503080
:1028D000844200D105E040F24911AFF28800FDF7D3
:1028E0009DFC25F00E0008B905B105E04FF4A57177
:1028F000AFF2A000FDF792FC0EB1012E00D105E071
:1029000040F24B11AFF2B400FDF788FC1EB1206815
:102910002843206002E02068A843206070BD70B5A5
:1029200004460D46D34884422AD0D248143084420B
:1029300026D0D0482830844222D0CE483C30844231
:102940001ED0CC48503084421AD0CA4864308442E9
:1029500016D0C8487830844212D0C74884420FD07D
:10296000C548143084420BD0C3482830844207D075
:10297000C1483C30844203D0BF485030844200D12B
:1029800005E04FF4B271AFF23410FDF747FC65601B
:1029900070BD10B50446B74884422AD0B5481430FB
:1029A000844226D0B3482830844222D0B1483C30FB
:1029B00084421ED0AF48503084421AD0AD486430B3
:1029C000844216D0AB487830844212D0AA48844260
:1029D0000FD0A948143084420BD0A7482830844235
:1029E00007D0A5483C30844203D0A34850308442ED
:1029F00000D105E04FF4BB71AFF2A810FDF70EFC5B
:102A0000606880B210BD70B5044600250026012C18
:102A10007ED0022C7CD0042C7AD0082C78D0102CBC
:102A200076D0202C74D0402C72D0802C7FD0B4F57E
:102A3000807F7CD0B4F5007F79D0B4F5806F76D0FC
:102A4000B4F5006F73D0B4F5805F70D0B4F5005F5B
:102A50006DD0B4F5804F6AD0B4F5004F67D0B4F5AF
:102A6000803F64D0B4F5003F61D0B4F5802F5ED0D4
:102A7000B4F5002F5BD0B4F5801F58D0B4F5001F1B
:102A800055D0B4F5800F52D0B4F5000F4FD0B4F14B
:102A9000807F4CD0B4F1007F49D0B4F1806F46D034
:102AA000B4F1006F43D07548844240D0401C84424A
:102AB0003DD0801C84423AD0001D844237D06F48FC
:102AC0000F30844233D06D481F3084422FD06B4882
:102AD0003F3084422BD069487F30844227D06748FA
:102AE000FF30844223D06648844220D06548844227
:102AF0001DD0654884421AD0B4F1102F17D04FEA88
:102B0000F030844213D06148844210D0604800E025
:102B10000DE084420BD05F48844208D05E48844276
:102B200005D05E48844202D05D48844200D105E071
:102B300040F2B711AFF2E420FDF770FB04F08050D3
:102B400018B14D480838066802E04A480838066857
:102B500006EA040008B1012500E00025284670BD02
:102B600010B5044604F0704010B14E48204008B93A
:102B700004B105E040F20E21AFF22830FDF74EFB24
:102B800004F0805018B13C48001F046002E039484E
:102B90000838446010BD70B5044600250026012C9D
:102BA00066D0022C64D0042C62D0082C60D0102C8B
:102BB0005ED0202C5CD0402C5AD0802C58D0B4F55C
:102BC000807F55D0B4F5007F52D0B4F5806F4FD0E0
:102BD000B4F5006F4CD0B4F5805F49D0B4F5005F18
:102BE00046D0B4F5804F43D0B4F5004F40D0B4F593
:102BF000803F7FD0B4F5003F7CD0B4F5802F79D0F2
:102C0000B4F5002F76D0B4F5801F73D0B4F5001F53
:102C100070D0B4F5800F6DD0B4F5000F6AD0B4F168
:102C2000807F67D0B4F1007F64D0B4F1806F61D051
:102C3000B4F1006F5ED0114884425BD0401C8442E6
:102C400058D0801C844255D0001D844252D00B487D
:102C50000F3084424ED009481F3084424AD0074882
:102C60003F30844246D005487F30844242D01BE04A
:102C700040E000000800024008040240010000108B
:102C800000020010000400100008001000400010B6
:102C9000008000100000011000000210000004106D
:102CA000000008100000F0EF2B48FF30844221D0D4
:102CB0002A4884421ED02A4884421BD02948844294
:102CC00018D0B4F1102F15D04FEAF030844211D053
:102CD000254884420ED0254884420BD024488442A3
:102CE00008D02448844205D02348844202D0234897
:102CF000844200D105E040F25921AFF2A840FDF72F
:102D00008DFA04F0805010B11D48066801E01D489E
:102D1000066806EA040008B1012500E000252846FF
:102D200070BD10B5044604F0704010B11648204044
:102D300008B904B105E040F2AF21AFF2E840FDF779
:102D40006DFA04F0805018B10D48001D046001E0D8
:102D50000C48446010BD000001000010000200108B
:102D60000004001000080010004000100080001057
:102D70000000011000000210000004100000081004
:102D800000040240000002400000F0EF064C074D36
:102D900006E0E06840F0010394E80700984710342B
:102DA000AC42F6D3FDF7A6F9D02D0008F02D0008AF
:102DB00002E008C8121F08C1002AFAD17047704704
:102DC000002001E001C1121F002AFBD17047000062
:102DD000F02D00080000002040000000B02D000889
:102DE000302E00084000002000040000C02D000824
:102DF00000050000FF030000DC050000D007000014
:102E0000F40100000000000000A24A0400000000DD
:102E1000000000000102030406070809000000008A
:102E2000010203040102030406070809020406085C
:0400000508000419D2
:00000001FF
